:020000040800F2
:10000000D03701205D020008FF4F0008910F000863
:10001000FB4F0008310A00080B55000800000000E3
:100020000000000000000000000000009D0100082A
:10003000E10C000800000000F9010008C1520008AE
:1000400077020008770200087702000877020008AC
:10005000770200087702000877020008770200089C
:10006000770200087702000877020008770200088C
:10007000770200087702000877020008770200087C
:10008000770200087702000877020008770200086C
:10009000770200087702000877020008770200085C
:1000A000770200087702000877020008770200084C
:1000B000770200087702000877020008770200083C
:1000C000770200087702000877020008770200082C
:1000D0007702000839530008770200087702000809
:1000E000770200087702000877020008770200080C
:1000F00077020008770200087702000877020008FC
:1001000077020008770200087702000877020008EB
:1001100077020008770200087702000877020008DB
:1001200077020008770200087702000877020008CB
:1001300077020008770200087702000877020008BB
:1001400077020008770200087702000877020008AB
:10015000770200087702000877020008770200089B
:10016000770200087702000877020008770200088B
:10017000770200087702000877020008770200087B
:100180007702000877020008DFF80CD000F080FB4F
:100190000048004705700008D03701202C4B196833
:1001A0000868B0E8F04F80F30988BFF36F8F4FF015
:1001B000000080F3118870470000000008480068C4
:1001C000006880F308884FF0000080F3148862B65E
:1001D00061B6BFF34F8FBFF36F8F00DF00BF00BF6B
:1001E00008ED00E0DFF80C00016841F470010160E7
:1001F000704700BF88ED00E0EFF30980BFF36F8F19
:10020000134B1A681EF0100F08BF20ED108A20E96A
:10021000F04F106009B44FF0500080F31188BFF325
:100220004F8FBFF36F8F09F017FE4FF0000080F380
:10023000118809BC19680868B0E8F04F1EF0100F6B
:1002400008BFB0EC108A80F30988BFF36F8F704746
:10025000BC000020EFF3058070470000064880478F
:1002600006480047FEE7FEE7FEE7FEE7FEE7FEE79B
:10027000FEE7FEE7FEE7FEE7D1520008890100082D
:1002800040EA01039B0703D009E008C9121F08C018
:10029000042AFAD203E011F8013B00F8013B521E98
:1002A000F9D27047D2B201E000F8012B491EFBD20F
:1002B00070470022F6E710B513460A460446194671
:1002C000FFF7F0FF204610BD30B505462A460B4625
:1002D00012F8010B13F8014B08B1A042F8D01CB181
:1002E000002802D06D1CF1E7284630BD421C10F8F2
:1002F000011B0029FBD1801A704710B5002200E0D5
:10030000521C835C8C5CA34201D1002BF8D1D8B283
:10031000E1B2401A10BD30B505460020034600E0AA
:100320005B1C934205D2EC5CC85C201A01D1002C06
:10033000F6D130BD70B5064605F02CF904680546C7
:100340000A220021304600F056F82C6070BD0EB530
:1003500040F2334102910021CDE900110A460B46DB
:1003600000F090F803B000BD30B50B460146002008
:100370002022012409E021FA02F59D4205D303FA67
:1003800002F5491B04FA02F52844151EA2F10102E8
:10039000F1DC30BD2DE9F05F0546002092469B461A
:1003A00088460646814640241BE02846414647468B
:1003B000224600F08EFA53465A46C01A914110D395
:1003C00011461846224600F075FA2D1A67EB01080F
:1003D0004F4622460120002100F06CFA17EB00097D
:1003E0004E41201EA4F10104DFDC484631462A4676
:1003F0004346BDE8F09F2DE9F04791460F46804601
:100400000446002614F8015B2DB100F085FA00685F
:10041000405DC007F6D12B2D02D02D2D18D0641EC3
:100420004A463946204600F07BFA27B13968A14296
:1004300001D1C7F8008071054FF002040BD540428E
:10044000002803DD05F0A6F80460A007BDE8F087EA
:1004500046F48066E4E70028F8DA05F09BF80460CB
:100460006FF00040F2E710B5141E73F1000408DAD3
:10047000401C41F1000192185B411A4301D120F068
:10048000010010BD2DE9F04D92469B4611B1B1FA25
:1004900081F202E0B0FA80F22032904600F00AFACF
:1004A00004460F4640EA0A0041EA0B0153465A4609
:1004B000084313D0114653EA010019D0C8F1400295
:1004C000504600F006FA05460E465046594642464A
:1004D00000F0F0F9084305D0012004E02046394639
:1004E000BDE8F08D0020054346EAE0762C43374313
:1004F0000A986305E40AA0EB08000022FD0A44EA1A
:1005000047540A3002D500200146E9E701051019D9
:100510006941DDE9084500196941BDE8F04DA2E7F0
:100520002DE9FE4F804681EA0300C00F0C46009083
:1005300021F0004123F00045B8EB0200A94105D2AB
:100540004046214690461C460B46024623F000409A
:10055000104347D0270DC7F30A00C3F30A51029096
:10056000401A019040286BDAC3F3130040F4801B5B
:100570000098924620B10023D2EB030A63EB0B0BE9
:1005800001985946C0F14002504600F093F90646E2
:100590000D4650465946019A00F0ABF910EB0800A1
:1005A0006141002487EA115284EAE7731A4340D07C
:1005B000009A62B3019A012A4FEA075215DC001B28
:1005C00061EB02014FF0004202EA0752CDE900421E
:1005D000001C41F5801132462B46FFF753FF03B054
:1005E000BDE8F08F40462146F9E7001B61EB0201B0
:1005F000001C41F5801300185B412018A2F500177C
:1006000047EB030140EAD570B6196D4111E06D0862
:100610004FEA360645EAC0754FEA0752001B61EB08
:100620000201001C41F5801149084FEA3000001911
:10063000514132462B4603B0BDE8F04FFFF713BFE0
:100640000098012240000023D0EB020263EBE0732C
:10065000009821464FEAE074B8EB000061EB04011A
:10066000E9E783F000435BE781F0004158E72DE9BB
:10067000FE4F81EA030404F0004421F0004100949D
:100680004FF0000B23F0004350EA01045ED052EA21
:1006900003045BD0C3F30A54C1F30A552C44A4F2FB
:1006A000F3340194A0FB0254C1F3130141F480110F
:1006B000C3F3130343F4801301FB024400FB034E16
:1006C000840A970A44EA815447EA8357A4FB0768DF
:1006D00002958D0A05FB07854FEA932C04FB0C5409
:1006E0002705029D4FEA065847EA1637B5EB08057D
:1006F0006EEB070C870E920E47EA811742EA8312CF
:10070000A7FB0201B6EB0B0164EB00042B0D43EADF
:100710000C335E1844EB1C50DA465146E7FB0201ED
:10072000C5F313044FEA0B3343EA14534FEA043280
:10073000019C43EA0603A4F10C040294009CCDE959
:1007400000B4FFF79FFE03B0BDE8F08F0020014624
:10075000F9E72DE9F04D81EA030404F0004B21F0A4
:10076000004514464FF0000A23F0004150EA05020C
:1007700020D054EA01021DD0C5F30A570246C5F342
:100780001303C1F31300C1F30A5640F4801543F478
:100790008013A7EB0608101BD64608F2FD3873EB52
:1007A000050002D308F1010801E092185B41B8F19D
:1007B000000F03DA00200146BDE8F08D00204FF461
:1007C0008011064684460EE0171B73EB050705D320
:1007D000121B63EB050306434CEA010C49084FEA80
:1007E000300092185B4150EA0107EDD152EA030054
:1007F00012D082EA040083EA0501084305D0101BE9
:10080000AB4106D20122002306E000224FF0004354
:1008100002E06FF0010253101AEB06004CEB085196
:1008200010EB0A0041EB0B01BDE8F04DFFF71BBEDA
:10083000C1F30A52C1F3130140F2FF3341F48011B6
:100840009A4202DA00200146704740F233439A424E
:10085000A2F2334202DC524200F03BB800F02AB868
:1008600030B5041E71F1000404DB4FF00044404237
:1008700064EB0101141E73F1000405DB1C464FF00C
:100880000043524263EB0403994208BF904230BDDB
:10089000064C074D06E0E06840F0010394E80700CD
:1008A00098471034AC42F6D3FFF772FC40C80008FA
:1008B00060C80008202A04DB203A00FA02F1002078
:1008C00070479140C2F1200320FA03F3194390408E
:1008D0007047202A04DB203A21FA02F000217047F9
:1008E00021FA02F3D040C2F1200291400843194698
:1008F0007047202A06DBCB17203A41FA02F043EA80
:10090000E07306E041FA02F3D040C2F120029140C8
:10091000084319467047000000487047ACC3000800
:100920002DE9F05F82460078002715468B460AF1D4
:100930000104B946302801D09DB113E014F8010B31
:100940000127782803D0582801D045B10AE00DB11D
:10095000102D07D10027102514F8010B02E00825FF
:1009600000E00A250026B0460EE005FB080005FB66
:1009700006F1012701EB10461FFA80F8B6F5803F1B
:1009800000D3B94614F8010B294600F018F80028E6
:10099000EBDABBF1000F05D00FB1641E00E0544646
:1009A000CBF80040B9F1000F06D004F0F3FD0221AE
:1009B0000160C81EBDE8F09F48EA0640FAE73A2801
:1009C00000D2303820F02002412A01D3A2F13700B2
:1009D000884201D34FF0FF30704770B58C1810F883
:1009E000015B15F0070301D110F8013B2A1106D174
:1009F00010F8012B03E010F8016B01F8016B5B1E8E
:100A0000F9D12B0705D40023521E0DD401F8013B68
:100A1000FAE710F8013BCB1A921C03E013F8015BD4
:100A200001F8015B521EF9D5A142D8D3002070BD58
:100A300000BFFEE770B50546002403E0641C0120FA
:100A400000F05BF9AA8891B2286800F084FA08B136
:100A5000642CF3DB642C02DB6FF0010070BD00241A
:100A600003E0641C012000F048F9AA8891B22868CC
:100A700000F071FA08B9642CF3DB642C02DB6FF030
:100A80000200EBE70020E9E77CB504460D46164678
:100A900014B94FF0FF307CBD3248854204D10121AA
:100AA000084604F0F3FA32E02F48854204D10121D0
:100AB000022004F0EBFA2AE02C48854204D10121FF
:100AC000042004F0E3FA22E02948854204D1012100
:100AD000082004F0DBFA1AE02648854204D10121FF
:100AE000102004F0D3FA12E02348854204D10121FA
:100AF000202004F0CBFA0AE02048854204D10121ED
:100B0000402004F0C3FA02E04FF0FF30C3E70120B9
:100B10008DF8040000208DF8060001208DF80700F4
:100B200002208DF80500606800906946206800F09A
:100B3000A7F9256066609FED120B84ED020B9FED17
:100B4000100B84ED040B01202076A28891B220685E
:100B500000F00DFA204600F08EF82046FFF76AFFFD
:100B600099E7000000000240000402400008024033
:100B7000000C024000100240001402400018024025
:100B8000000000000000000070B50446002503E0EE
:100B90006D1C012000F0B1F8A28891B2206800F02D
:100BA000DAF908B1642DF3DB002503E06D1C0120A8
:100BB00000F0A3F8A28891B2206800F0CCF908B93F
:100BC000642DF3DB282000F098F8A28891B2206809
:100BD00000F0C1F908B1012070BD0020FCE770B53C
:100BE00006460024002507E06006040E3046FFF7A5
:100BF000CBFF0443681CC5B2082DF5DB204670BD51
:100C00007CB504460CB1207E10B94FF0FF307CBD9E
:100C1000204600F030F82046FFF70CFF30BB0025DF
:100C200006E02046FFF7DBFF0DF80500681CC5B2A3
:100C3000052DF6DB9DF800009DF8011008449DF895
:100C4000021008449DF8031008449DF804108842DF
:100C50000FD19DF80000FFF77AFBC4E904019DF86D
:100C60000200FFF774FBC4E9020102E06FF001002B
:100C7000CDE70020CBE71CB5044601208DF8040029
:100C800000208DF8060001208DF8070002208DF865
:100C90000500606800906946206800F0F1F8A288BD
:100CA00091B2206800F060F9142000F01AF8A288D0
:100CB00091B2206800F05BF91E2000F01EF80020C1
:100CC0008DF8040001208DF8070002208DF8050042
:100CD000606800906946206800F0D2F800201CBDD2
:100CE000704700B5034603E04FF47A7000F005F852
:100CF000181EA3F10103F7D100BDA82141434FF015
:100D0000E0225161002191610521116100BF4FF086
:100D1000E021096901F480310029F8D004214FF065
:100D2000E02211617047000051B18200A2F1C0427F
:100D3000126842F001038200A2F1C042136009E090
:100D40008200A2F1C0421268034B1A408300A3F153
:100D5000C0431A6070470000FEFF0F0030B500214D
:100D6000002200230468A400A4F1C0442168424C7E
:100D70002140D0E901452C43C5682C4305692C432B
:100D800045692C4385692C43C5692C43056A2C436E
:100D9000456A2C43856A2C43C56A2C43056B2C435A
:100DA00021430468A400A4F1C04421608468082C95
:100DB0000BD10468A400A4F1C044246844F04005A9
:100DC0000468A400A4F1C04425600468641CA40065
:100DD000A4F1C044226802F04042446B2468456B91
:100DE0006D6844EA0514456BAD6844EA0524456B1B
:100DF000AD8944EA0544456B2D8A44EA0554456BA8
:100E00002D7D44EA0564456BAD692C43224304689B
:100E1000641CA400A4F1C0442260C46AB4F5804FED
:100E200020D10468A400A4F1C044D4F80431134CC8
:100E30002340846B2468856B6D6844EA0514856BD8
:100E4000AD6844EA0524856BAD8944EA0544856BA9
:100E5000AD692C4323430468A400A4F1C044C4F842
:100E6000043107E06FF070450468A400A4F1C044A9
:100E7000C4F8045130BD00008000F7FF0000F0CF3F
:100E8000F0B50A4600210023002400BF3DE0012503
:100E900005FA01F3156805EA03049C4234D105689C
:100EA0004F000326BE40B543056015794E00B5409E
:100EB0000668354305601579012D02D01579022D9C
:100EC00016D185684F000326BE40B543856055792D
:100ED0004E00B540866835438560456801268E40E2
:100EE000B5434560456896798E40B6B23543456056
:100EF000C5684F000326BE40B543C560D5794E0096
:100F0000B540C6683543C560491C1029BFD3F0BD44
:100F1000F0B5002300244D07ED0E02FA05F3CE10C4
:100F200000F1200555F826504E07F70E0F26BE405B
:100F3000B543CF1000F1200646F82750CE1000F13F
:100F4000200555F8265045EA0304CE1000F120058F
:100F500045F82640F0BD0246002013690B400BB156
:100F6000012000E0002070470A048261704781611F
:100F700070474FF6FF71016000210171417181716D
:100F8000C17170470AB1816101E00B048361704750
:100F900000BFFEE770B50446002617480588408864
:100FA00045431548808846F60401884216D1124808
:100FB0008079012812D100200F4988712A204881A8
:100FC0002B2088810021084603F070FE01200A4989
:100FD00088712B2048812A20888103E0002108465F
:100FE00003F064FE03F0C8FF002602E0034804801B
:100FF000761CAE42FAD370BDD00400200000086019
:1010000010B50446002C52D158498871F020088050
:101010004FF4A07048800846808849F241318842E8
:101020000BD05248808846F60401884205D04F48CC
:10103000808845F2103188421AD12C204B49088112
:101040002A2048812B2088810846808846F60401A2
:10105000884205D04548808845F21031884206D143
:101060004FF4A070414908804FF4F070488079E057
:101070003E48808845F21051884210D14FF43050DC
:101080003A4908814FF4285048814FF42C50888108
:101090004FF4F07008804FF44870488062E02220DE
:1010A0003249088120204881212088815AE001208E
:1010B0002E4988714FF4A0700880F02048800846BF
:1010C000808849F24131884205D02848808845F21D
:1010D0001031884207D12C20244908812A204881D8
:1010E0002B2088812BE02148808846F60401884225
:1010F00007D12C201D4908812B2048812A20888176
:101100001DE01A48808845F21051884210D14FF4F2
:101110003050164908814FF4285048814FF42C5024
:1011200088814FF4487008804FF4F070488006E0E2
:1011300022200E49088121204881202088810B48E7
:10114000808846F60401884205D00848808845F228
:101150001031884206D14FF4F070044908804FF4F2
:10116000A0704880002003F033FC10BDD0040020A4
:1011700070B504460D4616464248808849F2413112
:10118000884205D03F48808845F21031884214D10A
:101190003C49488903F0E4FE201203F0D5FEE0B29A
:1011A00003F0D2FE3749888903F0DAFE281203F0F3
:1011B000CBFEE8B203F0C8FE5DE03248808845F21D
:1011C0001051884220D12F49488903F0C9FE2012CE
:1011D00003F0BAFE2B494989491C88B203F0C0FECE
:1011E000E0B203F0B1FE2749888903F0B9FE281266
:1011F00003F0AAFE23498989491C88B203F0B0FE96
:10120000E8B203F0A1FE36E01E48808846F60401ED
:1012100088421DD11B488079012804D119480088D3
:10122000401E001B84B21749488903F099FE201222
:1012300003F08AFEE0B203F087FE1249888903F0CA
:101240008FFE281203F080FEE8B203F07DFE12E06C
:101250000C488079012804D10A480088401E001BF0
:1012600084B208494889214603F090FE05498889DF
:10127000294603F08BFE0348008903490880881C37
:10128000068070BDD0040020FEFF076000B5A1B04D
:101290000020209001211A2003F0F8FE01210846C9
:1012A00003F004FF02201E9001208DF87C00002036
:1012B0008DF87E0002208DF87D0001208DF87F00E2
:1012C0001EA9FE48FFF7DCFD4EF2B3701E9002200F
:1012D0008DF87C0000208DF87E0003208DF87D00C5
:1012E00001208DF87F001EA9F548FFF7C9FD4FF6D4
:1012F00080701E9002208DF87C0000208DF87E000A
:1013000003208DF87D0001208DF87F001EA9ED4897
:10131000FFF7B6FD0C220021E948FFF7F9FD0C228A
:101320000121E748FFF7F4FD0C220421E448FFF710
:10133000EFFD0C220521E248FFF7EAFD0C22072110
:10134000DF48FFF7E5FD0C220821DD48FFF7E0FD4F
:101350000C220921DA48FFF7DBFD0C220A21D848CC
:10136000FFF7D6FD0C220D21D548FFF7D1FD0C2249
:101370000E21D348FFF7CCFD0C220F21D048FFF7F8
:10138000C7FD0C220721CF48FFF7C2FD0C22082120
:10139000CC48FFF7BDFD0C220921CA48FFF7B8FD74
:1013A0000C220A21C748FFF7B3FD0C220B21C548C8
:1013B000FFF7AEFD0C221146C248FFF7A9FD0C2233
:1013C0000D21C048FFF7A4FD0C220E21BD48FFF7F8
:1013D0009FFD0C220F21BB48FFF79AFD0F200890BC
:1013E000002009903C200A9000200B900C900D905A
:1013F0000E90092001900020029008200390002008
:1014000004900590069007900F9010901190102076
:1014100012900020139015901490169017904FF48E
:1014200080501890002019904FF480401A900020AE
:101430001B9008A81C9001A81D900FA8FFF78EFC18
:1014400001210020FFF770FC3220FFF74AFC012148
:10145000002003F09BFD3220FFF743FC002003F047
:10146000ABFA9949888008468088FF280ADB08463D
:1014700080884FF6FF71884204D093488088B0F589
:10148000134F7CD1D32003F06BFD03F08BFA8E4910
:10149000888003F087FA8C49888003F083FA8A49B0
:1014A0008880084680884FF6FF7101EA002086494F
:1014B000888003F077FA84498988084382498880C4
:1014C0000846808849F24131884278D0BF2003F035
:1014D00047FD03F067FA7C49888003F063FA7A4994
:1014E000888003F05FFA7849888003F05BFA7649D8
:1014F0008880084680884FF6FF7101EA0020724913
:10150000888003F04FFA7049898808436E498880C3
:101510000846808846F60401884250D0D42003F063
:101520001FFD03F03FFA6849888003F03BFA6649E3
:10153000888003F037FA64498880084680884FF62F
:10154000FF7101EA00206049888003F02BFA5E49B0
:10155000898808435C4988800846808845F21031B4
:1015600088422CD04FF45A4003F0FAFC03F01AFAE8
:10157000554988804FF45B4003F0F2FC00E01EE028
:1015800003F010FA50498880084680884FF6FF71B2
:1015900001EA00204C4988804FF45C4003F0E0FCF5
:1015A00003F000FA4849898808434749888008467B
:1015B0008088B0F5004F02D145F210508880424833
:1015C000808849F2413188420BD03F48808845F2FB
:1015D0001031884205D03C48808845F2105188423D
:1015E0001DD13A48006820F00F004FF02041C1F8AB
:1015F0001C010846D0F81C0120F47060C1F81C01E1
:101600000846D0F81C0140F00300C1F81C01084650
:10161000D0F81C0140F40070C1F81C0128E02A48F1
:10162000808846F60401884205D0274880884CF21D
:10163000055188421CD12548006820F00F004FF06A
:101640002041C1F81C010846D0F81C0120F470604C
:10165000C1F81C010846D0F81C0140F00A00C1F88E
:101660001C010846D0F81C0140F44060C1F81C0180
:101670001548808849F2413188427DD1CF2003F05E
:101680006FFC002003F060FC2098401C2090C120DB
:1016900003F05AFC302003F057FCED2003F060FC0F
:1016A000642003F051FC032003F04EFC122003F0F1
:1016B0004BFC812003F048FCE82009E000040240D4
:1016C000000C024000100240D00400201C0100A0C9
:1016D00003F046FC852003F037FC102003F034FCB7
:1016E0007A2003F031FCCB2003F03AFC392003F0E0
:1016F0002BFC2C2003F028FC002003F025FC3420D8
:1017000003F022FC022003F01FFCF72003F028FC6A
:10171000202003F019FCEA2003F022FC002003F053
:1017200013FC002003F010FCC02003F019FC1B2068
:1017300003F00AFCC12003F013FC012003F004FCB9
:10174000C52003F00DFC302003F0FEFB302003F039
:10175000FBFBC72003F004FCB72003F0F5FB3620A9
:1017600003F0FEFB482003F0EFFB3A2003F0F8FB08
:10177000552003F0E9FB00E0A6E0B12003F0F0FB08
:10178000002003F0E1FB1A2003F0DEFBB62003F09B
:10179000E7FB0A2003F0D8FBA22003F0D5FBF220E0
:1017A00003F0DEFB002003F0CFFB262003F0D8FB84
:1017B000012003F0C9FBE02003F0D2FB0F2003F06F
:1017C000C3FB2A2003F0C0FB282003F0BDFB082048
:1017D00003F0BAFB0E2003F0B7FB082003F0B4FBC4
:1017E000542003F0B1FBA92003F0AEFB432003F02B
:1017F000ABFB0A2003F0A8FB0F2003F0A5FB0020A1
:1018000003F0A2FB002003F09FFB002003F09CFBF1
:10181000002003F099FBE12003F0A2FB002003F07D
:1018200093FB152003F090FB172003F08DFB07209E
:1018300003F08AFB112003F087FB062003F084FBF2
:101840002B2003F081FB562003F07EFB3C2003F0AD
:101850007BFB052003F078FB102003F075FB0F20C5
:1018600003F072FB3F2003F06FFB3F2003F06CFBA3
:101870000F2003F069FB2B2003F072FB002003F024
:1018800063FB002003F060FB012003F05DFB3F20C1
:1018900003F05AFB2A2003F063FB002003F054FB03
:1018A000002003F051FB002003F04EFBEF2003F07B
:1018B0004BFB112003F054FB7820FFF712FA29208C
:1018C00003F04EFB03F05CB8FE48808846F6040146
:1018D00088427CD1112003F043FB1420FFF701FA6A
:1018E000D02003F03DFB072003F02EFB422003F045
:1018F0002BFB1D2003F028FBD12003F031FB00203F
:1019000003F022FB1A2003F01FFB092003F01CFB4D
:10191000D22003F025FB012003F016FB222003F068
:1019200013FBC02003F01CFB102003F00DFB3B2039
:1019300003F00AFB002003F007FB022003F004FB86
:10194000112003F001FBC52003F00AFB032003F084
:10195000FBFAC82003F004FB002003F0F5FA252071
:1019600003F0F2FA212003F0EFFA052003F0ECFA7D
:10197000002003F0E9FA0A2003F0E6FA652003F0FC
:10198000E3FA252003F0E0FA772003F0DDFA502097
:1019900003F0DAFA0F2003F0D7FA002003F0D4FAAC
:1019A000F82003F0DDFA012003F0CEFAFE2003F068
:1019B000D7FA002003F0C8FA022003F0C5FA20206D
:1019C00003F0CEFA362003F0CBFA082000E02CE03A
:1019D00003F0BAFA3A2003F0C3FA552003F0B4FA40
:1019E0002B2003F0BDFA002003F0AEFA002003F034
:1019F000ABFA012003F0A8FA3F2003F0A5FA2A2051
:101A000003F0AEFA002003F09FFA002003F09CFAE6
:101A1000012003F099FADF2003F096FA7820FFF70F
:101A200060F9292003F09CFA4CE7A648808845F22B
:101A30001031884240F07C87ED2003F091FA0120BC
:101A400003F082FAFE2003F07FFAEE2003F088FA1A
:101A5000DE2003F079FA212003F076FAF12003F07A
:101A60007FFA012003F070FADF2003F079FA1020EA
:101A700003F06AFAC42003F073FA8F2003F064FACB
:101A8000C62003F06DFA002003F05EFAE22003F0B6
:101A90005BFAE22003F058FAE22003F055FABF2087
:101AA00003F05EFAAA2003F04FFAB02003F058FAD0
:101AB0000D2003F049FA002003F046FA0D2003F050
:101AC00043FA002003F040FA112003F03DFA002011
:101AD00003F03AFA192003F037FA002003F034FA41
:101AE000212003F031FA002003F02EFA2D2003F01C
:101AF0002BFA002003F028FA3D2003F025FA0020FD
:101B000003F022FA5D2003F01FFA002003F01CFA14
:101B10005D2003F019FA002003F016FAB12003F05B
:101B20001FFA802003F010FA002003F00DFA8B203A
:101B300003F00AFA002003F007FA962003F004FAF3
:101B4000002003F001FAB22003F00AFA002003F0AB
:101B5000FBF9002003F0F8F9022003F0F5F900206A
:101B600003F0F2F9032003F0EFF9002003F0ECF9A1
:101B7000B32003F0F5F9002003F0E6F9002003F0AC
:101B8000E3F9002003F0E0F9002003F0DDF9002084
:101B900003F0DAF9002003F0D7F9002003F0D4F9BC
:101BA000002003F0D1F9002003F0CEF9002003F06B
:101BB000CBF9002003F0C8F9002003F0C5F900209C
:101BC00003F0C2F9002003F0BFF9002003F0BCF9D4
:101BD000002003F0B9F9002003F0B6F9002003F06B
:101BE000B3F9002003F0B0F9002003F0ADF90020B4
:101BF00003F0AAF9002003F0A7F9002003F0A4F9EC
:101C0000002003F0A1F9B42003F0AAF98B2003F01F
:101C10009BF9002003F098F9962003F095F9002035
:101C200003F092F9A12003F08FF9002003F08CF962
:101C3000B52003F095F9022003F086F9002003F0A7
:101C400083F9032003F080F9002003F07DF90420DC
:101C500003F07AF9002003F077F9B62003F080F959
:101C6000002003F071F9002003F06EF9B72003F0B3
:101C700077F9002003F068F9002003F065F93F20B0
:101C800003F062F9002003F05FF95E2003F05CF9D5
:101C9000002003F059F9642003F056F9002003F006
:101CA00053F98C2003F050F9002003F04DF9AC20DB
:101CB00003F04AF9002003F047F9DC2003F044F96F
:101CC000002001E0D004002003F03EF9702003F072
:101CD0003BF9002003F038F9902003F035F900209B
:101CE00003F032F9EB2003F02FF9002003F02CF978
:101CF000DC2003F029F9002003F026F9B82003F0D6
:101D00002FF9002003F020F9002003F01DF9002036
:101D100003F01AF9002003F017F9002003F014F97A
:101D2000002003F011F9002003F00EF9002003F069
:101D30000BF9BA2003F014F9242003F005F9002070
:101D400003F002F9002003F0FFF8002003F0FCF894
:101D5000C12003F005F9202003F0F6F8002003F07D
:101D6000F3F8542003F0F0F8002003F0EDF8FF2022
:101D700003F0EAF8002003F0E7F8C22003F0F0F8DF
:101D80000A2003F0E1F8002003F0DEF8042003F05D
:101D9000DBF8002003F0D8F8C32003F0E1F83C2082
:101DA00003F0D2F8002003F0CFF83A2003F0CCF88B
:101DB000002003F0C9F8392003F0C6F8002003F032
:101DC000C3F8372003F0C0F8002003F0BDF83C2032
:101DD00003F0BAF8002003F0B7F8362003F0B4F8A7
:101DE000002003F0B1F8322003F0AEF8002003F039
:101DF000ABF82F2003F0A8F8002003F0A5F82C2062
:101E000003F0A2F8002003F09FF8292003F09CF8CB
:101E1000002003F099F8262003F096F8002003F044
:101E200093F8242003F090F8002003F08DF824208C
:101E300003F08AF8002003F087F8232003F084F8E9
:101E4000002003F081F83C2003F07EF8002003F02E
:101E50007BF8362003F078F8002003F075F8322084
:101E600003F072F8002003F06FF82F2003F06CF8F5
:101E7000002003F069F82C2003F066F8002003F03E
:101E800063F8292003F060F8002003F05DF82620B5
:101E900003F05AF8002003F057F8242003F054F818
:101EA000002003F051F8242003F04EF8002003F046
:101EB0004BF8232003F048F8002003F045F8C42035
:101EC00003F04EF8622003F03FF8002003F03CF8E6
:101ED000052003F039F8002003F036F8842003F0E1
:101EE00033F8002003F030F8F02003F02DF8002044
:101EF00003F02AF8182003F027F8002003F024F854
:101F0000A42003F021F8002003F01EF8182003F0AD
:101F10001BF8002003F018F8502003F015F80020FB
:101F200003F012F80C2003F00FF8002003F00CF877
:101F3000172003F009F8002003F006F8952003F0BD
:101F400003F8002003F000F8F32002F0FDFF00206A
:101F500002F0FAFFE62002F0F7FF002002F0F4FFA3
:101F6000C52002F0FDFF322002F0EEFF002002F05B
:101F7000EBFF442002F0E8FF002002F0E5FF6520BF
:101F800002F0E2FF002002F0DFFF762002F0DCFF2B
:101F9000002002F0D9FF882002F0D6FF002002F0D6
:101FA000D3FFC62002F0DCFF202002F0CDFF00208E
:101FB00002F0CAFF172002F0C7FF002002F0C4FFA2
:101FC000012002F0C1FF002002F0BEFFC72002F096
:101FD000C7FF002002F0B8FF002002F0B5FF00208C
:101FE00002F0B2FF002002F0AFFFC82002F0B8FFFD
:101FF000002002F0A9FF002002F0A6FF002002F05E
:10200000A3FF002002F0A0FFC92002F0A9FF0020DA
:1020100002F09AFF002002F097FF002002F094FFE8
:10202000002002F091FF002002F08EFF002002F05D
:102030008BFF002002F088FF002002F085FF0020C7
:1020400002F082FF002002F07FFF002002F07CFF00
:10205000002002F079FF002002F076FF002002F05D
:1020600073FF002002F070FF002002F06DFFE020FF
:1020700002F076FF162002F067FF002002F064FFF6
:102080001C2002F061FF002002F05EFF212002F020
:102090005BFF002002F058FF362002F055FF0020C1
:1020A00002F052FF462002F04FFF002002F04CFFEA
:1020B000522002F049FF002002F046FF642002F0A7
:1020C00043FF002002F040FF7A2002F03DFF002095
:1020D00002F03AFF8B2002F037FF002002F034FFBD
:1020E000992002F031FF002002F02EFFA82002F01C
:1020F0002BFF002002F028FFB92002F025FF00206E
:1021000002F022FFC42002F01FFF002002F01CFF9B
:10211000CA2002F019FF002002F016FFD22002F0C0
:1021200013FF002002F010FFD92002F00DFF002065
:1021300002F00AFFE02002F007FF002002F004FF97
:10214000F32002F001FF002002F0FEFEE12002F089
:1021500007FF162002F0F8FE002002F0F5FE1C201A
:1021600002F0F2FE002002F0EFFE222002F0ECFE70
:10217000002002F0E9FE362002F0E6FE002002F028
:10218000E3FE452002F0E0FE002002F0DDFE5220DA
:1021900002F0DAFE002002F0D7FE642002F0D4FE46
:1021A000002002F0D1FE7A2002F0CEFE002002F0E4
:1021B000CBFE8B2002F0C8FE002002F0C5FE992065
:1021C00002F0C2FE002002F0BFFEA82002F0BCFE1A
:1021D000002002F0B9FEB92002F0B6FE002002F0A5
:1021E000B3FEC42002F0B0FE002002F0ADFECA2013
:1021F00002F0AAFE002002F0A7FED22002F0A4FE08
:10220000002002F0A1FED82002F09EFE002002F085
:102210009BFEE02002F098FE002002F095FEF320E5
:1022200002F092FE002002F08FFEE22002F098FE03
:10223000052002F089FE002002F086FE0B2002F04D
:1022400083FE002002F080FE1B2002F07DFE0020B5
:1022500002F07AFE342002F077FE002002F074FED5
:10226000442002F071FE002002F06EFE4F2002F0CA
:102270006BFE002002F068FE612002F065FE002087
:1022800002F062FE792002F05FFE002002F05CFEA8
:10229000882002F059FE002002F056FE972002F03E
:1022A00053FE002002F050FEA62002F04DFE00205A
:1022B00002F04AFEB72002F047FE002002F044FE82
:1022C000C22002F041FE002002F03EFEC72002F0D4
:1022D0003BFE002002F038FED12002F035FE002047
:1022E00002F032FED62002F02FFE002002F02CFE7B
:1022F000DD2002F029FE002002F026FEF32002F08D
:1023000023FE002002F020FEE32002F029FE05203B
:1023100002F01AFE002002F017FE0A2002F014FE5E
:10232000002002F011FE1C2002F00EFE002002F040
:102330000BFE332002F008FE002002F005FE4420D0
:1023400002F002FE002002F0FFFD502002F0FCFD32
:10235000002002F0F9FD622002F0F6FD002002F0FC
:10236000F3FD782002F0F0FD002002F0EDFD882062
:1023700002F0EAFD002002F0E7FD972002F0E4FD04
:10238000002002F0E1FDA62002F0DEFD002002F0B8
:10239000DBFDB72002F0D8FD002002F0D5FDC22001
:1023A00002F0D2FD002002F0CFFDC72002F0CCFDEC
:1023B000002002F0C9FDD12002F0C6FD002002F08D
:1023C000C3FDD52002F0C0FD002002F0BDFDDD20E0
:1023D00002F0BAFD002002F0B7FDF32002F0B4FDD8
:1023E000002002F0B1FDE42002F0BAFD012002F06D
:1023F000ABFD002002F0A8FD012002F0A5FD0020A9
:1024000002F0A2FD022002F09FFD002002F09CFDE0
:102410002A2002F099FD002002F096FD3C2002F0F7
:1024200093FD002002F090FD4B2002F08DFD002076
:1024300002F08AFD5D2002F087FD002002F084FD9D
:10244000742002F081FD002002F07EFD842002F065
:102450007BFD002002F078FD932002F075FD002046
:1024600002F072FDA22002F06FFD002002F06CFD70
:10247000B32002F069FD002002F066FDBE2002F0EC
:1024800063FD002002F060FDC42002F05DFD00202D
:1024900002F05AFDCD2002F057FD002002F054FD5D
:1024A000D32002F051FD002002F04EFDDD2002F0AD
:1024B0004BFD002002F048FDF32002F045FD002016
:1024C00002F042FDE52002F04BFD002002F03CFD51
:1024D000002002F039FD002002F036FD002002F05D
:1024E00033FD022002F030FD002002F02DFD2920F6
:1024F00002F02AFD002002F027FD3C2002F024FD1E
:10250000002002F021FD4B2002F01EFD002002F011
:102510001BFD5D2002F018FD002002F015FD742067
:1025200002F012FD002002F00FFD842002F00CFDED
:10253000002002F009FD932002F006FD002002F0C9
:1025400003FDA22002F000FD002002F0FDFCB320FC
:1025500002F0FAFC002002F0F7FCBE2002F0F4FCCE
:10256000002002F0F1FCC42002F0EEFC002002F09A
:10257000EBFCCD2002F0E8FC002002F0E5FCD320CB
:1025800002F0E2FC002002F0DFFCDC2002F0DCFCC8
:10259000002002F0D9FCF32002F0D6FC002002F06B
:1025A000D3FCE62002F0DCFC112002F0CDFC002080
:1025B00002F0CAFC342002F0C7FC002002F0C4FC88
:1025C000562002F0C1FC002002F0BEFC762002F092
:1025D000BBFC002002F0B8FC772002F0B5FC002024
:1025E00002F0B2FC662002F0AFFC002002F0ACFC6E
:1025F000882002F0A9FC002002F0A6FC992002F03D
:10260000A3FC002002F0A0FCBB2002F09DFC0020F7
:1026100002F09AFC992002F097FC002002F094FC52
:10262000662002F091FC002002F08EFC552002F0A2
:102630008BFC002002F088FC552002F085FC002075
:1026400002F082FC452002F07FFC002002F07CFCBE
:10265000432002F079FC002002F076FC442002F0D6
:1026600073FC002002F070FCE72002F079FC3220BD
:1026700002F06AFC002002F067FC552002F064FCC6
:10268000002002F061FC762002F05EFC002002F0E7
:102690005BFC662002F058FC002002F055FC67202D
:1026A00002F052FC002002F04FFC672002F04CFCCC
:1026B000002002F049FC872002F046FC002002F0D6
:1026C00043FC992002F040FC002002F03DFCBB20BE
:1026D00002F03AFC002002F037FC992002F034FCB2
:1026E000002002F031FC772002F02EFC002002F0E6
:1026F0002BFC442002F028FC002002F025FC562090
:1027000002F022FC002002F01FFC232002F01CFC3F
:10271000002002F019FC332002F016FC002002F029
:1027200013FC452002F010FC002002F00DFCE82014
:1027300002F016FC002002F007FC002002F004FC6E
:10274000992002F001FC002002F0FEFB872002F03D
:10275000FBFB002002F0F8FB882002F0F5FB0020D4
:1027600002F0F2FB772002F0EFFB002002F0ECFB1E
:10277000662002F0E9FB002002F0E6FB882002F070
:10278000E3FB002002F0E0FBAA2002F0DDFB0020CA
:1027900002F0DAFBBB2002F0D7FB002002F0D4FBF2
:1027A000992002F0D1FB002002F0CEFB662002F05F
:1027B000CBFB002002F0C8FB552002F0C5FB002037
:1027C00002F0C2FB552002F0BFFB002002F0BCFB70
:1027D000442002F0B9FB002002F0B6FB442002F0D6
:1027E000B3FB002002F0B0FB552002F0ADFB00204F
:1027F00002F0AAFBE92002F0B3FBAA2002F0A4FB3E
:10280000002002F0A1FB002002F09EFB002002F05D
:102810009BFB002002F0A4FBAA2002F095FBCF2036
:1028200002F09EFB002002F08FFB002002F08CFBE8
:10283000002002F089FB002002F086FB002002F05D
:1028400083FB002002F080FB002002F07DFB0020D3
:1028500002F07AFB002002F077FB002002F074FB0C
:10286000002002F071FB002002F06EFB002002F05D
:102870006BFB002002F068FB002002F065FB0020EB
:1028800002F062FB002002F05FFBF02002F068FB28
:10289000002002F059FB502002F056FB002002F00D
:1028A00053FB002002F050FB002002F04DFBF32010
:1028B00002F056FB002002F047FBF92002F050FB2B
:1028C000062002F041FB102002F03EFB292002F01E
:1028D0003BFB002002F038FB3A2002F041FB552080
:1028E00002F032FB112002F03BFB6420FEF7F9F905
:1028F000292002F035FB352002F032FB002002F0E7
:1029000023FB512002F02CFBFF2002F01DFB532083
:1029100002F026FB2C2002F017FB552002F020FBD2
:10292000822002F011FB2C2002F01AFB02F028B8E2
:10293000FE48808845F2105188427DD155214FF4E0
:10294000704002F023FBAA214FF2010002F01EFBAF
:1029500052214FF2020002F019FB08214FF203004E
:1029600002F014FB01214FF2040002F00FFB0D21D5
:102970004FF4304002F00AFB0D214BF2010002F04F
:1029800005FB0D214BF2020002F000FB34214FF455
:10299000364002F0FBFA34214BF2016002F0F6FA05
:1029A00034214BF2026002F0F1FA0D214FF4314074
:1029B00002F0ECFA0D214BF2011002F0E7FA0D21C2
:1029C0004BF2021002F0E2FA34214FF4374002F0E9
:1029D000DDFA34214BF2017002F0D8FA34214BF2C7
:1029E000027002F0D3FA00214FF4324002F0CEFA26
:1029F00000214BF2012002F0C9FA00214BF2022023
:102A000002F0C4FA24214FF4384002F0BFFA242126
:102A10004BF6010002F0BAFA24214BF6020002F054
:102A2000B5FA01214FF43F4002F0B0FA0F214FF404
:102A3000334002F0ABFA00E0FDE30F214BF201302E
:102A400002F0A4FA0F214BF2023002F09FFA342177
:102A50004FF4394002F09AFA34214BF6011002F09B
:102A600095FA34214BF6021002F090FA08214FF447
:102A7000354002F08BFA08214BF2015002F086FA41
:102A800008214BF2025002F081FA03214FF4424038
:102A900002F07CFA24214FF43A4002F077FA242124
:102AA0004BF6012002F072FA24214BF6022002F0CC
:102AB0006DFA00214FF43C4002F068FA78214BF6A1
:102AC000014002F063FA00214BF6024002F05EFA88
:102AD00000214FF43D4002F059FA78214BF60150A5
:102AE00002F054FA00214BF6025002F04FFA002196
:102AF0004FF43E4002F04AFA64214BF6016002F0C6
:102B000045FA00214FF4514002F040FA33214DF2D2
:102B1000011002F03BFA00214DF2021002F036FAE9
:102B200034214DF2031002F031FA00214DF204106D
:102B300002F02CFA3A214DF2051002F027FA00219A
:102B40004DF2061002F022FA4A214DF2071002F06F
:102B50001DFA00214DF2081002F018FA5C214DF226
:102B6000091002F013FA00214DF20A1002F00EFAD9
:102B700081214DF20B1002F009FA00214DF20C10E8
:102B800002F004FAA6214DF20D1002F0FFF9002127
:102B90004DF20E1002F0FAF9E5214DF20F1002F09D
:102BA000F5F901214DF2101002F0F0F913214DF268
:102BB000111002F0EBF901214DF2121002F0E6F9CA
:102BC00054214DF2131002F0E1F901214DF21410DD
:102BD00002F0DCF982214DF2151002F0D7F9012143
:102BE0004DF2161002F0D2F9CA214DF2171002F080
:102BF000CDF902214DF2181002F0C8F900214DF272
:102C0000191002F0C3F902214DF21A1002F0BEF9B8
:102C100001214DF21B1002F0B9F902214DF21C10F6
:102C200002F0B4F934214DF21D1002F0AFF9022187
:102C30004DF21E1002F0AAF967214DF21F1002F0AA
:102C4000A5F902214DF2201002F0A0F984214DF2E5
:102C5000211002F09BF902214DF2221002F096F9A8
:102C6000A4214DF2231002F091F902214DF224101B
:102C700002F08CF9B7214DF2251002F087F90221FC
:102C80004DF2261002F082F9CF214DF2271002F00A
:102C90007DF902214DF2281002F078F9DE214DF283
:102CA000291002F073F902214DF22A1002F06EF998
:102CB000F2214DF22B1002F069F902214DF22C1095
:102CC00002F064F9FE214DF22D1002F05FF90321AC
:102CD0004DF22E1002F05AF910214DF22F1002F091
:102CE00055F903214DF2301002F050F933214DF225
:102CF000311002F04BF903214DF2321002F046F987
:102D00006D214DF2331002F041F900214FF4524091
:102D100002F03CF933214DF2012002F037F9002195
:102D20004DF2022002F032F9342101E0D0040020FB
:102D30004DF2032002F02AF900214DF2042002F0A6
:102D400025F93A214DF2052002F020F900214DF23B
:102D5000062002F01BF94A214DF2072002F016F975
:102D600000214DF2082002F011F95C214DF20920FA
:102D700002F00CF900214DF20A2002F007F981213E
:102D80004DF20B2002F002F900214DF20C2002F06E
:102D9000FDF8A6214DF20D2002F0F8F800214DF2C9
:102DA0000E2002F0F3F8E5214DF20F2002F0EEF8CC
:102DB00001214DF2102002F0E9F813214DF211200B
:102DC00002F0E4F801214DF2122002F0DFF8542164
:102DD0004DF2132002F0DAF801214DF2142002F036
:102DE000D5F882214DF2152002F0D0F801214DF2E4
:102DF000162002F0CBF8CA214DF2172002F0C6F8D7
:102E000002214DF2182002F0C1F800214DF21920E4
:102E100002F0BCF802214DF21A2002F0B7F80121AD
:102E20004DF21B2002F0B2F802214DF21C2002F0FC
:102E3000ADF834214DF21D2002F0A8F802214DF228
:102E40001E2002F0A3F867214DF21F2002F09EF829
:102E500002214DF2202002F099F884214DF2212028
:102E600002F094F802214DF2222002F08FF8A42102
:102E70004DF2232002F08AF802214DF2242002F0C4
:102E800085F8B7214DF2252002F080F802214DF29D
:102E9000262002F07BF8CF214DF2272002F076F8B1
:102EA00002214DF2282002F071F8DE214DF2292096
:102EB00002F06CF802214DF22A2002F067F8F221AC
:102EC0004DF22B2002F062F802214DF22C2002F08C
:102ED0005DF8FE214DF22D2002F058F803214DF24D
:102EE0002E2002F053F810214DF22F2002F04EF860
:102EF00003214DF2302002F049F833214DF2312008
:102F000002F044F803214DF2322002F03FF86D2127
:102F10004DF2332002F03AF800214FF4534002F012
:102F200035F833214DF2013002F030F800214DF236
:102F3000023002F02BF834214DF2033002F026F873
:102F400000214DF2043002F021F83A214DF2053013
:102F500002F01CF800214DF2063002F017F84A2169
:102F60004DF2073002F012F800214DF2083002F065
:102F70000DF85C214DF2093002F008F800214DF205
:102F80000A3002F003F881214DF20B3001F0FEFF10
:102F900000214DF20C3001F0F9FFA6214DF20D3069
:102FA00001F0F4FF00214DF20E3001F0EFFFE521BA
:102FB0004DF20F3001F0EAFF01214DF2103001F027
:102FC000E5FF13214DF2113001F0E0FF01214DF238
:102FD000123001F0DBFF54214DF2133001F0D6FF27
:102FE00001214DF2143001F0D1FF82214DF2153054
:102FF00001F0CCFF01214DF2163001F0C7FFCA21CC
:103000004DF2173001F0C2FF02214DF2183001F0ED
:10301000BDFF00214DF2193001F0B8FF02214DF241
:103020001A3001F0B3FF01214DF21B3001F0AEFF69
:1030300002214DF21C3001F0A9FF34214DF21D3068
:1030400001F0A4FF02214DF21E3001F09FFF672125
:103050004DF21F3001F09AFF02214DF2203001F0B5
:1030600095FF84214DF2213001F090FF02214DF2B5
:10307000223001F08BFFA4214DF2233001F086FFB6
:1030800002214DF2243001F081FFB7214DF22530AD
:1030900001F07CFF02214DF2263001F077FFCF21B5
:1030A0004DF2273001F072FF02214DF2283001F07D
:1030B0006DFFDE214DF2293001F068FF02214DF253
:1030C0002A3001F063FFF2214DF22B3001F05EFF58
:1030D00002214DF22C3001F059FFFE214DF22D302E
:1030E00001F054FF03214DF22E3001F04FFF10216B
:1030F0004DF22F3001F04AFF03214DF2303001F044
:1031000045FF33214DF2313001F040FF03214DF2F4
:10311000323001F03BFF6D214DF2333001F036FFCC
:1031200000214FF4544001F031FF33214DF20140B2
:1031300001F02CFF00214DF2024001F027FF342165
:103140004DF2034001F022FF00214DF2044001F056
:103150001DFF3A214DF2054001F018FF00214DF20C
:10316000064001F013FF4A214DF2074001F00EFF27
:1031700000214DF2084001F009FF5C214DF20940A9
:1031800001F004FF00214DF20A4001F0FFFE812111
:103190004DF20B4001F0FAFE00214DF20C4001F01F
:1031A000F5FEA6214DF20D4001F0F0FE00214DF29A
:1031B0000E4001F0EBFEE5214DF20F4001F0E6FE7E
:1031C00001214DF2104001F0E1FE13214DF21140BA
:1031D00001F0DCFE01214DF2124001F0D7FE542136
:1031E0004DF2134001F0D2FE01214DF2144001F0E6
:1031F000CDFE82214DF2154001F0C8FE01214DF2B5
:10320000164001F0C3FECA214DF2174001F0BEFE88
:1032100002214DF2184001F0B9FE00214DF2194093
:1032200001F0B4FE02214DF21A4001F0AFFE01217F
:103230004DF21B4000E006E301F0A8FE02214DF232
:103240001C4001F0A3FE34214DF21D4001F09EFE12
:1032500002214DF21E4001F099FE67214DF21F4000
:1032600001F094FE02214DF2204001F08FFE8421F6
:103270004DF2214001F08AFE02214DF2224001F080
:1032800085FEA4214DF2234001F080FE02214DF283
:10329000244001F07BFEB7214DF2254001F076FE7F
:1032A00002214DF2264001F071FECF214DF2274060
:1032B00001F06CFE02214DF2284001F067FEDE2194
:1032C0004DF2294001F062FE02214DF22A4001F048
:1032D0005DFEF2214DF22B4001F058FE02214DF22D
:1032E0002C4001F053FEFE214DF22D4001F04EFE28
:1032F00003214DF22E4001F049FE10214DF22F40E6
:1033000001F044FE03214DF2304001F03FFE332135
:103310004DF2314001F03AFE03214DF2324001F00E
:1033200035FE6D214DF2334001F030FE00214FF4A7
:10333000554001F02BFE33214DF2015001F026FEE5
:1033400000214DF2025001F021FE34214DF20350D4
:1033500001F01CFE00214DF2045001F017FE3A214D
:103360004DF2055001F012FE00214DF2065001F021
:103370000DFE4A214DF2075001F008FE00214DF2EA
:10338000085001F003FE5C214DF2095001F0FEFDF2
:1033900000214DF20A5001F0F9FD81214DF20B5050
:1033A00001F0F4FD00214DF20C5001F0EFFDA621DB
:1033B0004DF20D5001F0EAFD00214DF20E5001F0EA
:1033C000E5FDE5214DF20F5001F0E0FD01214DF248
:1033D000105001F0DBFD13214DF2115001F0D6FD2C
:1033E00001214DF2125001F0D1FD54214DF2135044
:1033F00001F0CCFD01214DF2145001F0C7FD8221F6
:103400004DF2155001F0C2FD01214DF2165001F0B0
:10341000BDFDCA214DF2175001F0B8FD02214DF259
:10342000185001F0B3FD00214DF2195001F0AEFD2E
:1034300002214DF21A5001F0A9FD01214DF21B505D
:1034400001F0A4FD02214DF21C5001F09FFD34213A
:103450004DF21D5001F09AFD02214DF21E5001F077
:1034600095FD67214DF21F5001F090FD02214DF2B4
:10347000205001F08BFD84214DF2215001F086FD9A
:1034800002214DF2225001F081FDA4214DF2235082
:1034900001F07CFD02214DF2245001F077FDB721AF
:1034A0004DF2255001F072FD02214DF2265001F03F
:1034B0006DFDCF214DF2275001F068FD02214DF244
:1034C000285001F063FDDE214DF2295001F05EFD30
:1034D00002214DF22A5001F059FDF2214DF22B50FC
:1034E00001F054FD02214DF22C5001F04FFDFE2160
:1034F0004DF22D5001F04AFD03214DF22E5001F006
:1035000045FD10214DF22F5001F040FD03214DF2F9
:10351000305001F03BFD33214DF2315001F036FDCA
:1035200003214DF2325001F031FD6D214DF2335047
:1035300001F02CFD00214FF4564001F027FD33210E
:103540004DF2016001F022FD00214DF2026001F018
:103550001DFD34214DF2036001F018FD00214DF2F4
:10356000046001F013FD3A214DF2056001F00EFDFB
:1035700000214DF2066001F009FD4A214DF207607D
:1035800001F004FD00214DF2086001F0FFFC5C2118
:103590004DF2096001F0FAFC00214DF20A6001F0E1
:1035A000F5FC81214DF20B6001F0F0FC00214DF2A1
:1035B0000C6001F0EBFCA6214DF20D6001F0E6FC81
:1035C00000214DF20E6001F0E1FCE5214DF20F60AB
:1035D00001F0DCFC01214DF2106001F0D7FC132159
:1035E0004DF2116001F0D2FC01214DF2126001F0A8
:1035F000CDFC54214DF2136001F0C8FC01214DF2C5
:10360000146001F0C3FC82214DF2156001F0BEFC94
:1036100001214DF2166001F0B9FCCA214DF217608C
:1036200001F0B4FC02214DF2186001F0AFFC002162
:103630004DF2196001F0AAFC02214DF21A6001F06E
:10364000A5FC01214DF21B6001F0A0FC02214DF20E
:103650001C6001F09BFC34214DF21D6001F096FCD2
:1036600002214DF21E6001F091FC67214DF21F60B6
:1036700001F08CFC02214DF2206001F087FC8421D6
:103680004DF2216001F082FC02214DF2226001F036
:103690007DFCA4214DF2236001F078FC02214DF263
:1036A000246001F073FCB7214DF2256001F06EFC3F
:1036B00002214DF2266001F069FCCF214DF2276016
:1036C00001F064FC02214DF2286001F05FFCDE2174
:1036D0004DF2296001F05AFC02214DF22A6001F0FE
:1036E00055FCF2214DF22B6001F050FC02214DF20D
:1036F0002C6001F04BFCFE214DF22D6001F046FCE8
:1037000003214DF22E6001F041FC10214DF22F609B
:1037100001F03CFC03214DF2306001F037FC332115
:103720004DF2316001F032FC03214DF2326001F0C4
:103730002DFC6D214DF2336001F028FC55214FF432
:10374000704001F023FCAA214FF2010001F01EFCA1
:1037500052214FF2020001F019FC08214FF2030040
:1037600001F014FC00214FF2040001F00FFCCC2109
:103770004FF4314001F00AFC00214BF2011001F03E
:1037800005FC05214FF4364001F000FC70214FF498
:10379000374001F0FBFB70214BF2017001F0F6FBAA
:1037A00001214FF4384001F0F1FB03214BF60100F9
:1037B00001F0ECFB03214BF6020001F0E7FB0321D3
:1037C0004BF6030001F0E2FB02214FF43C4001F014
:1037D000DDFB00214BF6014001F0D8FB00214BF648
:1037E000024001F0D3FBD0214FF4494001F0CEFB61
:1037F00002214CF6011001F0C9FB50214CF60210D9
:1038000001F0C4FB50214CF6031001F0BFFB502126
:103810004CF6041001F0BAFB00214FF4545001F0B3
:10382000B5FB55214FF4685001F0B0FB4FF48850C0
:1038300001F096FB7820FDF760FA4FF4245001F078
:103840008FFB01F09DB8FE48808849F225318842FF
:103850007ED147F6F001E52001F098FB4FF480712E
:10386000012001F093FB4FF4E061022001F08EFB98
:1038700041F23001032001F089FB0021042001F016
:1038800085FB40F20221082001F080FB0021092085
:1038900001F07CFB00210A2001F078FB00210C20C4
:1038A00001F074FB00210D2001F070FB00210F20BE
:1038B00001F06CFB0021102001F068FB07211120B2
:1038C00001F064FB0021122001F060FB00211320B5
:1038D00001F05CFB0021072001F058FB41F29061F0
:1038E000102001F053FB40F22721112001F04EFB84
:1038F0009D21122001F04AFB4FF4C851132001F022
:1039000045FB2521292001F041FB0D212B2001F051
:103910003DFB0721302001F039FB40F2033131201B
:1039200001F034FB0321322001F030FB40F206218C
:10393000352001F02BFB0821362001F027FB40F257
:103940000641372001F022FB4FF44171382000E09E
:1039500057E001F01BFB0721392001F017FB40F273
:1039600002613C2001F012FB08213D2001F00EFB1A
:103970000021502001F00AFBEF21512001F006FB4D
:103980000021522001F002FB40F23F11532001F0D0
:10399000FDFA4FF42741602001F0F8FA012161207F
:1039A00001F0F4FA00216A2001F0F0FA00218020F1
:1039B00001F0ECFA0021812001F0E8FA00218220D8
:1039C00001F0E4FA0021832001F0E0FA00218420D4
:1039D00001F0DCFA0021852001F0D8FA10219020B6
:1039E00001F0D4FA4FF4C061922001F0CFFA40F216
:1039F0003311072001F0CAFA2221002001F0C6FA93
:103A00001FE78F48808849F2283188427ED141F2F1
:103A10008F01EC2001F0BAFA41F23421EF2001F0DD
:103A2000B5FA4FF48071012001F0B0FA4FF4E06173
:103A3000022001F0ABFA41F23001032001F0A6FAB6
:103A40000021042001F0A2FA40F20221082001F036
:103A50009DFA0021092001F099FA00210A2001F0C5
:103A600095FA01210C2001F091FA00210D2001F0BE
:103A70008DFA00210F2001F089FA0021102001F0B9
:103A800085FA0721112001F081FA0021122001F0AE
:103A90007DFA0021132001F079FA0121072001F0BD
:103AA00075FA3220FDF71DF941F29041102001F026
:103AB0006DFA40F22721112001F068FA3220FDF75B
:103AC00010F98A21122001F061FA3220FDF709F97C
:103AD0004FF4D051132001F059FA0621292001F0AA
:103AE00055FA0D212B2001F051FA3220FDF7F9F89B
:103AF0000021202001F04AFA0021212001F046FA9D
:103B00003220FDF7EEF80021302000E074E001F0F3
:103B10003DFA40F20461312001F038FA40F20531FB
:103B2000322001F033FA0021352001F02FFA40F65F
:103B30000941362001F02AFA4FF40171372001F0D3
:103B400025FA40F20131382001F020FA40F20771E5
:103B5000392001F01BFA00213C2001F017FA40F651
:103B60000A213D2001F012FA3220FDF7BAF80021B7
:103B7000502001F00BFAEF21512001F007FA00214B
:103B8000522001F003FA40F23F11532001F0FEF9F8
:103B90004FF42741602001F0F9F90121612001F083
:103BA000F5F900216A2001F0F1F90021802001F0EF
:103BB000EDF90021812001F0E9F90021822001F0D6
:103BC000E5F90021832001F0E1F90021842001F0D2
:103BD000DDF90021852001F0D9F91021902001F0B4
:103BE000D5F94FF4C061922001F0D0F940F23311C1
:103BF000072001F0CBF924E61148808849F22031F2
:103C000088427DD10021084601F0C0F94FF480714F
:103C1000012001F0BBF94FF4E061022001F0B6F998
:103C200041F23001032001F0B1F90021042001F03C
:103C3000ADF940F20221082001F0A8F9002101E0CD
:103C4000D0040020092001F0A1F900210A2001F090
:103C50009DF901210C2001F099F900210D2001F0BE
:103C600095F900210F2001F091F93220FDF739F884
:103C700040F20111072001F089F93220FDF731F8F7
:103C80004FF48651102001F081F90721112001F035
:103C90007DF94FF48871122001F078F94FF430610A
:103CA000132001F073F90021292001F06FF944F28B
:103CB00010012B2001F06AF90021502001F066F973
:103CC000EF21512001F062F90021522001F05EF94C
:103CD00040F23F11532001F059F94FF41C5160207C
:103CE00001F054F90121612001F050F900216A200E
:103CF00001F04CF90021802001F048F9002100E09A
:103D000031E0812001F042F90021822001F03EF9EA
:103D10000021832001F03AF90021842001F036F9D6
:103D20000021852001F032F91021902001F02EF9B8
:103D30000021922001F02AF90121932001F026F9B7
:103D40004FF48871952001F021F90021972001F0AE
:103D50001DF90021982001F019F940F27311072094
:103D600001F014F96DE5FE48808849F2313188424E
:103D70007DD141F21401E72001F008F94FF4807180
:103D8000012001F003F94FF40071022001F0FEF868
:103D900041F23801032001F0F9F840F20221082035
:103DA00001F0F4F80021092001F0F0F800210A20C8
:103DB00001F0ECF800210C2001F0E8F800210D20C2
:103DC00001F0E4F800210F2001F0E0F800211020BC
:103DD00001F0DCF80721112001F0D8F800211220B1
:103DE00001F0D4F80021132001F0D0F8C820FCF72E
:103DF00078FF41F29061102001F0C8F840F22721CD
:103E0000112001F0C3F83220FCF76BFF0C211220C7
:103E100001F0BCF83220FCF764FF4FF4006113207E
:103E200001F0B4F81121292001F0B0F80B212B206A
:103E300001F0ACF83220FCF754FF0021202001F003
:103E4000A5F840F23F11212001F0A0F80021302018
:103E500001F09CF84FF48371312001F097F80021B4
:103E6000322001F093F84FF40171352000E064E056
:103E700001F08CF841F20A61362001F087F840F237
:103E80000771372001F082F84FF48371382001F078
:103E90007DF840F20771392001F078F840F20241D4
:103EA0003C2001F073F840F60F413D2001F06EF820
:103EB0000021502001F06AF8EF21512001F066F84E
:103EC0000021522001F062F840F23F11532001F02E
:103ED0005DF84FF41C51602001F058F80121612079
:103EE00001F054F800216A2001F050F800218020F0
:103EF00001F04CF80021812001F048F800218220D7
:103F000001F044F80021832001F040F800218420D2
:103F100001F03CF80021852001F038F810219020B4
:103F200001F034F84FF4C061922001F02FF840F214
:103F30003311072001F02AF883E48948808845F28C
:103F4000084188427ED14FF48071012001F01EF8B3
:103F50004FF4E061022001F019F841F23001032032
:103F600001F014F80021042001F010F840F20721BC
:103F7000082001F00BF80021092001F007F80021CA
:103F80000A2001F003F800210C2000F0FFFF0021BF
:103F90000D2000F0FBFF00210F2000F0F7FF1420A0
:103FA000FCF79FFE41F2B061102000F0EFFF01210D
:103FB000112000F0EBFF0121172000F0E7FF4FF484
:103FC0009C71122000F0E2FF4FF40061132000F01A
:103FD000DDFF0921292000F0D9FF09212A2000F066
:103FE000D5FF0021A42000F0D1FF0021502000F0D7
:103FF000CDFFEF21512000F0C9FF0021522000F039
:10400000C5FF40F23F11532000F0C0FF4FF41C5198
:10401000602000F0BBFF0121612000F0B7FF00210C
:104020006A2000F0B3FF0021802000F0AFFF0021E4
:10403000812000F0ABFF0021822000F0A7FF0021CB
:10404000832000E023E000F0A1FF0021842000F0A5
:104050009DFF0021852000F099FF1321902000F0A2
:1040600095FF0021922000F091FF0321932000F0A2
:104070008DFF4FF48871952000F088FF40F2731196
:10408000072000F083FF3220FCF72BFEB8E4344811
:10409000808841F2055188427ED10021072000F03E
:1040A00075FF3220FCF71DFE4FF48E71122000F0D8
:1040B0006DFF0121A42000F069FF0F21082000F00E
:1040C00065FF08210A2000F061FF08210D2000F0A3
:1040D0005DFF40F20771302000F058FF07213120CA
:1040E00000F054FF40F20361322000F04FFF4FF424
:1040F000E061332000F04AFF40F20221342000F05A
:1041000045FF0221352000F041FF41F60F713620B6
:1041100000F03CFF40F20771372000F037FF00212C
:10412000382000F033FF0021392000F02FFF40F24B
:1041300007713A2000F02AFF00213B2000F026FF03
:1041400007213C2000F022FF00213D2000F01EFF4F
:104150003220FCF7C6FD0121072000F017FF01E027
:10416000D00400200121172000F010FF3220FCF7BE
:10417000B8FD4FF4BD51102000F008FF40F21721A8
:10418000112000F003FF4FF48F71122000F0FEFEAB
:104190004FF47061132000E097E000F0F7FE00217B
:1041A0002A2000F0F3FE0A21292000F0EFFE4FF450
:1041B0009F71122000F0EAFE0021502000F0E6FE80
:1041C000EF21512000F0E2FE0021522000F0DEFE3F
:1041D00040F23F11532000F0D9FE4FF41C516020F3
:1041E00000F0D4FE0121612000F0D0FE00216A2001
:1041F00000F0CCFE0021802000F0C8FE00218120CC
:1042000000F0C4FE0021822000F0C0FE00218320C7
:1042100000F0BCFE0021842000F0B8FE00218520C3
:1042200000F0B4FE1321902000F0B0FE4FF4407176
:10423000922000F0ABFE0521932000F0A7FE0021A4
:10424000952000F0A3FE0021972000F09FFE0021A2
:10425000982000F09BFE4FF48071012000F096FE44
:104260004FF4E061022000F091FE41F2380103209A
:1042700000F08CFE0021042000F088FE00210C20BC
:1042800000F084FE00210F2000F080FE002120209D
:1042900000F07CFE0021212000F078FE2121072083
:1042A00000F074FE1420FCF71CFD6121072000F0D3
:1042B0006DFE1420FCF715FD40F27311072000F08D
:1042C00065FE1420FCF70DFD5AE3FE4880884BF292
:1042D000055188427ED10021084600F057FE00219A
:1042E000084600F053FE0021084600F04FFE002172
:1042F000084600F04BFE0121A42000F047FE1420E8
:10430000FCF7EFFC4FF41C51602000F03FFE40F240
:104310000221082000F03AFE4FF40571302000F031
:1043200035FE43F21571312000F030FE40F2046199
:10433000322000F02BFE40F61661332000F026FEFE
:1043400042F21121342000F021FE4FF4A851352013
:1043500000F01CFE48F20751362000F017FE41F233
:104360000741372000F012FE41F20341382000F0EF
:104370000DFE2021392000F009FE1A21902000F0C6
:1043800005FE0021102000F001FE0721112000F0A1
:10439000FDFD0021122000F0F9FD0021132000F0A6
:1043A000F5FD1420FCF79DFC4FF4E661102000F0B1
:1043B000EDFD40F23711112000F0E8FD1420FCF76C
:1043C00090FC4FF4DC71122000F0E0FD1420FCF7AB
:1043D00088FC00E083E04FF47061132000F0D6FD0C
:1043E00080212A2000F0D2FD4821292000F0CEFDB6
:1043F0001420FCF776FC4FF48071012000F0C6FD1C
:104400004FF4E061022000F0C1FD41F238010320C9
:1044100000F0BCFD40F20221082000F0B7FD0021B1
:104420000A2000F0B3FD00210C2000F0AFFD0021B8
:104430000D2000F0ABFD30210E2000F0A7FD002183
:10444000502000F0A3FDEF21512000F09FFD00213E
:10445000522000F09BFD40F23F11532000F096FDEA
:104460004FF41C51602000F091FD0121612000F00B
:104470008DFD00216A2000F089FD1121902000F0BF
:1044800085FD4FF4C061922000F080FD40F20241B2
:10449000932000F07BFD0221942000F077FD142092
:1044A000FCF71FFC0121072000F070FD1420FCF731
:1044B00018FC6121072000F069FD40F2731107200C
:1044C00000F064FD0021202000F060FD002121208B
:1044D00000F05CFD2221002000F058FD50E27948F8
:1044E00080884CF2055188427ED10021084600F0B8
:1044F0004DFD0021084600F049FD1420FCF7F1FBBA
:104500000021084600F042FD0021084600F03EFD73
:104510000021084600F03AFD0021084600F036FD73
:104520000121A42000F032FD1420FCF7DAFB4FF447
:104530001C51602000F02AFD40F60601082000F022
:1045400025FD40F20371302000F020FD01213120D3
:1045500000F01CFD0421322000F018FD4FF48171A1
:10456000332000F013FD4FF44071342000F00EFDB5
:1045700040F20311352000F009FD1F21362000F024
:1045800005FD40F20371372000F000FD01213820C5
:1045900000F0FCFC0421392000F0F8FC15219020EB
:1045A00000F0F4FC4FF48261102000F0EFFC40F2C8
:1045B0004721112000F0EAFC4FF4DE71122000F0D8
:1045C000E5FC4FF46061132000F0E0FC7820FCF77C
:1045D00088FB4FF48071012000F0D8FC4FF400718B
:1045E000022000F0D3FC00E050E041F23001032053
:1045F00000F0CCFC08210A2000F0C8FC00210C20AF
:1046000000F0C4FC20210E2000F0C0FC00210F208F
:1046100000F0BCFC0021202000F0B8FC002121208B
:1046200000F0B4FC3D212A2000F0B0FC1420FCF77F
:1046300058FB2D21292000F0A9FC0021502000F07A
:10464000A5FC4DF2EF01512000F0A0FC002152200A
:1046500000F09CFC40F23F11532000F097FC002139
:10466000612000F093FC00216A2000F08FFC4FF4E1
:104670004071922000F08AFC0521932000F086FC16
:104680004FF48071072000F081FC79E10D488088AB
:1046900044F2315188427CD10121002000F076FCA7
:1046A0000A20FCF71EFB41F22861102000F06EFC8E
:1046B0000E21122000F06AFC40F63921132000F090
:1046C00065FC01E0D00400200A20FCF70AFB402131
:1046D000112000F05BFC5021152000F057FC0A204F
:1046E000FCF7FFFA1E21122000F050FC0A20FCF714
:1046F000F8FA4FF4B151102000F048FC42F639218D
:10470000132000F043FC0A20FCF7EBFA4FF4807111
:10471000012000F03BFC4FF44071022000F036FC19
:1047200041F23801032000F031FC40F20221082060
:1047300000F02CFC08210A2000F028FC0021302089
:1047400000F024FC40F20241312000F01FFC4FF445
:104750008371322000F01AFC40F20351332000F044
:1047600015FC4FF48271342000F010FC40F201314E
:10477000352000F00BFC40F20771362000F006FCFB
:1047800040F20531372000F001FC4FF4027138206F
:1047900000E040E000F0FAFB40F60B71392000F039
:1047A000F5FB0221412000F0F1FB4FF41C51602089
:1047B00000F0ECFB0121612000F0E8FB4FF40471F4
:1047C000902000F0E3FB4FF48571922000F0DEFBB7
:1047D0000421932000F0DAFB4FF48071A02000F058
:1047E000D5FB0121072000F0D1FB2121072000F09B
:1047F000CDFB2321072000F0C9FB3321072000F067
:10480000C5FB40F23311072000F0C0FB0021A020BF
:1048100000F0BCFBB4E06148808844F23551884226
:10482000F8D13021152000F0B1FB10219A2000F0C2
:10483000ADFB2021112000F0A9FB43F228411020FC
:1048400000F0A4FB0221122000F0A0FB41F238018D
:10485000132000F09BFB2820FCF743FA12210846A6
:1048600000F094FB2820FCF73CFA43F22041102092
:1048700000F08CFB43F23801132000F087FB462048
:10488000FCF72FFA0021302000F080FB40F20241BB
:10489000312000F07BFB40F20731322000F076FB44
:1048A0004FF44171332000F071FB0421342000F0FB
:1048B0006DFB40F20141352000F068FB40F20771CA
:1048C000362000F063FB40F20531372000F05EFB3C
:1048D0004FF4C261382000F059FB4FF4C261392017
:1048E00000F054FB4FF48071012000F04FFB4FF4B7
:1048F0004071022000F04AFB41F23001032000F039
:1049000045FB40F60801082000F040FB08210A2082
:1049100000F03CFB4FF41C51602000F037FB0121FC
:10492000612000F033FB4FF49F71902000F02EFBCC
:104930004FF48071922000F029FB4FF48071932096
:1049400000F024FB4FF44051A02000F01FFB102189
:10495000A32000F01BFB0121072000F017FB212101
:10496000072000F013FB2321072000F00FFB332169
:10497000072000F00BFB40F23311072000F006FB8C
:104980000020FCF73DFB02210548FCF7F0FA4FF64A
:10499000FF70FCF7FFFA21B000BD0000D00400203A
:1049A0000004024008B5034800880090BDF80000EC
:1049B00008BD00000000086001B5BDF8000000F06F
:1049C000CFFA0520FCF799F9FFF7ECFF08BD0000CE
:1049D0002DE9F04305460024A146B348807901281B
:1049E0001ED1B148808846F60401884218D0082DAF
:1049F00015D2DFE805F00406080A0C0E1012062591
:104A00000DE007250BE0042509E0052507E0012559
:104A100005E0002503E0032501E0022500BF00BFFB
:104A2000A148808849F24131884211D09E4880884F
:104A300046F6040188420BD09B48808845F210312D
:104A4000884205D09848808845F21051884278D134
:104A5000082D1CD2DFE805F00406090C0F1215180A
:104A600000BF14E044F0800411E044F040040EE084
:104A700044F0C0040BE044F0200408E044F060047B
:104A800005E044F0A00402E044F0E00400BF00BFF1
:104A90008548808845F21051884202D14FF4585918
:104AA00001E04FF036098048808845F21031884295
:104AB00007D07D48808845F21051884201D044F0EB
:104AC00008047948808846F60401884201D144F000
:104AD00002042146484600F059FA04F0200018B9B3
:104AE0007148807901280FD16F4800886E49498844
:104AF000884218DA6C48B0F8008040886A4908801B
:104B00000846A0F802800EE0674800886649498898
:104B1000884208DD6448B0F8008040886249088017
:104B20000846A0F802806048807901280AD15E48D2
:104B3000808846F60401884204D05B48468807888E
:104B400003E07AE05848068847885748808845F24D
:104B5000105188424AD15449488900F001FA002096
:104B600000F0F2F950494989491C88B200F0F8F97F
:104B7000002000F0E9F94C494989891C88B200F00D
:104B8000EFF9711EC1F30F2000F0DEF946494989A3
:104B9000C91C88B200F0E4F9711EC8B200F0D4F963
:104BA0004149888900F0DCF9002000F0CDF93E4948
:104BB0008989491C88B200F0D3F9002000F0C4F9BB
:104BC00039498989891C88B200F0CAF9791EC1F374
:104BD0000F2000F0B9F934498989C91C88B200F066
:104BE000BFF9791EC8B200F0AFF95AE02E494889E2
:104BF00000F0B6F9002000F0A7F9002000F0A4F9B9
:104C0000711EC1F30F2000F09FF9711EC8B200F0B1
:104C10009BF92549888900F0A3F9002000F094F958
:104C2000002000F091F9791EC1F30F2000F08CF9FB
:104C3000791EC8B200F088F933E0082D1CD2DFE8F5
:104C400005F004070A0D0F12151844F0300413E0A4
:104C500044F0100410E044F020040DE000BF0BE02D
:104C600044F0380408E044F0280405E044F0180457
:104C700002E044F0080400BF00BF0B48808848F6FB
:104C80008911884205D14FF0110946F240000443D2
:104C900003E04FF0030944F480542146484600F0F5
:104CA00075F9BDE8F0830000D004002030B504465B
:104CB0000D464048808849F24131884205D03D4840
:104CC000808845F21031884214D13A49488900F071
:104CD00047F9201200F038F9E0B200F035F9354913
:104CE000888900F03DF9281200F02EF9E8B200F0B2
:104CF0002BF95DE02F48808846F6040188421DD1DB
:104D00002C488079012804D12A480088401E001BC5
:104D100084B22849488900F023F9201200F014F9E0
:104D2000E0B200F011F92349888900F019F928123E
:104D300000F00AF9E8B200F007F939E01D48808870
:104D400045F21051884220D11A49488900F008F9EB
:104D5000201200F0F9F817494989491C88B200F07F
:104D6000FFF8E0B200F0F0F81249888900F0F8F896
:104D7000281200F0E9F80F498989491C88B200F02F
:104D8000EFF8E8B200F0E0F812E00A488079012874
:104D900004D108480088401E001B84B20549488998
:104DA000214600F0F3F803498889294600F0EEF81F
:104DB00030BD0000D00400202DE9F84F80460E469B
:104DC00017461C46B3462046E31704EB5373DB102B
:104DD00021464FEAE47C04EB5C7C4FEAEC0CA4EB4C
:104DE000CC0CBCF1000F02D04FF0010C01E04FF0F1
:104DF000000C6344224604EBD27C4FEA6C0C03FBAC
:104E00000CF3DBB20093A7F12000C7B2002556E0F7
:104E10000C2C07D107EB47002B4901EB800010F861
:104E2000059013E0102C05D1284800EB071010F86E
:104E300005900BE0182C07D107EBC700244901EBC4
:104E4000800010F8059001E0BDE8F88F4FF0000AEF
:104E50002FE009F0800030B11E48028831464046FC
:104E6000FCF786F907E00A9828B91B480288314602
:104E70004046FCF77DF94FEA49604FEA1069701C23
:104E800086B216484088B04200DCDDE7A6EB0B0096
:104E9000A0420AD15E4608F101001FFA80F80F48CF
:104EA0000088404500DCCFE706E00AF1010000F091
:104EB000FF0ABAF1080FCCDB00BF681CC5B200982E
:104EC0008542A5DB00BFBFE714A9000888AD000834
:104ED00078B300082400002026000020D004002021
:104EE0002DE9F84704460D4690469946DDE90967E5
:104EF00004F0FF0A08EB04001FFA80F809EB050034
:104F00001FFA80F916E0444502DB5446A81985B221
:104F10004D4500DB14E0002000903A7833462946E6
:104F20002046FFF749FF304606EBD07104EB6101E4
:104F30008CB27F1C38787E2802DC38782028E2DAB0
:104F400000BFBDE8F887000001B5BDF80000009083
:104F5000BDF800000149088008BD0000000008609D
:104F600001B5BDF800000090BDF8000001490880BF
:104F700008BD0000FEFF0760024800890249088062
:104F800070470000D0040020FEFF076003B5BDF8A5
:104F9000000003490880BDF80400891C08800CBD8E
:104FA000FEFF07601CB50446002000900190A08819
:104FB000009001208DF8040000208DF806000320E9
:104FC0008DF8050000208DF8070069462068FBF782
:104FD00057FFE279A1882068FBF7D4FF1CBD10B50C
:104FE0000446A1882068FBF7C2FF10BD10B5044637
:104FF000A1882068FBF7B8FF10BD00BFFEE770472F
:1050000070B5002100230F22C4781CB3174C24680C
:1050100004F4E064C4F5E064C4F30721C1F10404BE
:10502000E3B20A4144789C40E1B2847814402143C1
:105030000C07210E0E4C05786155047804F01F050D
:105040000124AC4005786D11AD0005F1E025C5F8EF
:10505000004109E0047804F01F050124AC40054D2F
:105060000678761145F8264070BD00000CED00E092
:1050700000E400E080E100E002490143024A1160DF
:10508000704700000000FA050CED00E029B1064A67
:1050900012680243044B1A6004E0034A1268824318
:1050A000014B1A60704700003038024029B1064AAF
:1050B00012680243044B1A6004E0034A12688243F8
:1050C000014B1A60704700003838024029B1064A87
:1050D00012680243044B1A6004E0034A12688243D8
:1050E000014B1A607047000044380240F0B50021BF
:1050F00000220024022500260223324F3F6807F0D9
:105100000C0121B1042905D0082937D105E02E4F23
:10511000076036E02D4F076033E02A4F3F1F3F689E
:10512000C7F38056274F3F1F3F6807F03F036EB11C
:10513000264FB7FBF3F7DFF88CC0ACF1040CDCF8BA
:1051400000C0CCF3881C07FB0CF40CE01E4FB7FB2F
:10515000F3F7DFF870C0ACF1040CDCF800C0CCF35E
:10516000881C07FB0CF4174F3F1F3F68C7F301472C
:105170007F1C7D00B4FBF5F7076002E0124F07606B
:1051800000BF00BF0F4F3F6807F0F0010909104F43
:105190007A5C0768D74047600A4F3F6807F4E051E0
:1051A000890A0B4F7A5C4768D7408760054F3F6894
:1051B00007F46041490B064F7A5C4768D740C760E7
:1051C000F0BD0000083802400024F40000127A000C
:1051D0003C0000200CB5002001900090344800688D
:1051E00040F480303249086000BF3148006800F464
:1051F000003000900198401C0190009818B9019867
:10520000B0F5A04FF1D12A48006800F4003010B189
:105210000120009001E0002000900098012846D174
:1052200023484030006840F08050214940310860F8
:105230002048006840F440401E4908601C4808307F
:1052400000681B49083108600846006840F40040C7
:1052500008600846006840F4A05008601648091F1E
:105260000860081F006840F08070091F086000BFD8
:105270000F48006800F000700028F9D040F2057077
:105280000E4908600A480830006820F00300084909
:10529000083108600846006840F00200086000BF5E
:1052A00003480830006800F00C000828F8D10CBD55
:1052B000003802400070004008544007003C0240A3
:1052C00010B505F0AFF8012801D004F0BFFE10BD05
:1052D00010B51548006840F4700013490860134881
:1052E000006840F001001149086000200F490831B2
:1052F00008600E4800680E4908400C4908600D48D7
:10530000091D0860081F006820F48020091F08603C
:10531000002006490C310860FFF75CFF4FF0006089
:1053200001498039086010BD88ED00E00038024076
:10533000FFFFF6FE1030002410B520210A4800F0CF
:1053400032F880B1084800F0CBF8C4B207480068D2
:1053500018B1204605490968884740F2255102489E
:1053600000F006F800BF10BD00100140180000203A
:1053700010B50022002340F66A14A14200D100BFFC
:105380000A1201249440A3B2DC43048010BD21B171
:10539000828942F40052828104E082894DF6FF73D3
:1053A0001A408281704702460020B1F5007F00D18B
:1053B00000BF13880B400BB1012000E000207047B4
:1053C000F0B50346002400260025002040F66A17A9
:1053D000B94200D100BF1846C1F3421401F01F06C4
:1053E000012707FA06F5012C01D10C3004E0022C4C
:1053F00001D1103000E014301AB107682F43076064
:1054000002E00768AF430760F0BD00002DE9FF47E9
:1054100005460E460024A14600BFA046B08900B153
:1054200000BF2C8A24F44054F08804432C82AC89B9
:1054300041F20C608443B088318908437189084384
:105440000443AC81AC8A24F44074B0890443AC8238
:105450006846FFF74BFE2048854202D01F48854230
:1054600002D1DDF80C9001E0DDF80890A88900F485
:10547000004040B109EBC90000EB09103168490058
:10548000B0FBF1F707E009EBC90000EB0910316848
:105490008900B0FBF1F76420B7FBF0F004012009AC
:1054A000642101FB1078A88900F4004040B132204B
:1054B00000EBC800B0FBF1F000F00700044308E087
:1054C000322000EB08106421B0FBF1F000F00F0077
:1054D00004432C81BDE8FF87001001400014014007
:1054E00001468888C0F308007047C1F30802828033
:1054F00070474FF41651016000218180C180018105
:105500000C21418100218181704700BFFEE700002E
:105510000FB41CB50246002007AC00290BD0491E71
:10552000CDE90021054B6A462146069800F008F9AE
:10553000009A002111701CBC5DF814FB8B5E000802
:105540000FB4084B10B504A902AA039800F0F8F8AC
:10555000044602A9002000F0A3FC204610BC5DF820
:1055600014FB0000A15E00087CB5044600201D4627
:10557000164600290BD0491ECDE90041044B6A466E
:105580002946304600F0DCF8009A002111707CBDFD
:105590008B5E0008004870473801002002E008C810
:1055A000121F08C1002AFAD170477047002001E09D
:1055B00001C1121F002AFBD1704700002DE9FF5FD7
:1055C00082B00021DDE90430020DDDF840B0034374
:1055D00018D044F61050A2F2FF324243151411982D
:1055E00001281FD0A5EB0B00401C5FEA000A4FF01A
:1055F00000064E4FDFF83891B046504615D5CAF137
:10560000000413E0119801244AA3012801D16FEA94
:105610000B010298119AC0E90031C0E9024206B0BC
:10562000BDE8F09FCBF10000DFE704460021404ACF
:10563000491842EB0450CDE9001012E0E00707D012
:1056400032463B4640464946FBF711F880468946BC
:1056500032463B4610461946FBF709F806460F4608
:105660006410002CEAD1DDE90401DDE90023BAF180
:10567000000F06DAFAF7FBFF42464B46FAF7F7FF50
:1056800005E0FBF766F842464B46FBF762F8044636
:105690000E460022284BFBF7E3F803D84FF0FF300B
:1056A000014607E00022254B20463146FAF738FF35
:1056B000FBF7BEF8102409E0002C0ADB0A220023C5
:1056C000FAF768FE039B30321A55641E50EA010255
:1056D000F2D1641C039AC4F111031444119A012AF3
:1056E00003D0012208430DD10AE0084304D0002072
:1056F0004FF0110B119072E7A3EB0B056D1E0DE03F
:105700005B4504DD4FF0000205F1010504E003DA1A
:105710004FF00002A5F10105002AECD00298119982
:10572000C0E90231C0E9004579E7000000001440FB
:105730000000F03F300000000000F0430000E03FB8
:105740002DE9FF4F95B09B468946064600250FE29E
:10575000252877D100242746F84A0121059400E046
:10576000044316F8013F203B01FA03F01042F7D141
:1057700030782A2811D06FF02F033078A0F1300252
:10578000092A16D8059A44F0020402EB820203EBC0
:1057900042021044761C0590EFE759F8042B05925D
:1057A000002A03DA504244F40054059044F0020405
:1057B000761C30782E2816D116F8010F44F0040418
:1057C0002A280DD06FF02F023078A0F13003092B7A
:1057D00009D807EB870302EB4303C718761CF3E7EE
:1057E00059F8047B761C30786C280FD006DC4C28E6
:1057F00017D068280DD06A2814D104E0742810D07E
:105800007A280FD10DE044F400140AE044F4801427
:1058100001E044F440147278824202D104F580140D
:10582000761C761C307866280BD013DC582877D08D
:1058300009DC002875D04528F6D04628F4D0472842
:105840001AD19DE118E0632835D0642879D0652805
:1058500012D195E1702873D008DC6728F1D069284F
:105860006FD06E280DD06F2806D1B5E073282CD0EC
:10587000752875D0782874D05A46179990476D1CB2
:1058800075E1C4F30250022809D003280DD0D9F8DD
:10589000001004280DD00D6009F1040967E1D9F862
:1058A0000010EA17C1E90052F6E7D9F800100D80A0
:1058B000F2E70D70F0E719F8041B8DF800100020D6
:1058C0008DF80100EA46012003E059F804AB4FF0DF
:1058D000FF3061074FF0000102D40DE008F1010133
:1058E0008846B9420FDA8045F8DB1AF8081000291B
:1058F000F4D108E008F1010188468142FADB1AF888
:1059000008100029F6D105985B46A0EB0807214650
:105910003846179A00F094FA284400EB080507E08F
:105920004DE029E10DE01AF8010B5A46179990470E
:10593000B8F10108F7D25B4621463846179A13E1C1
:1059400042E00A220092C4F302524FF0000A022AF7
:1059500008D059F804CB032A4FEAEC710AD00DE0C5
:1059600029E02AE009F1070121F00702F2E802C16B
:10597000914609E00FFA8CFC4FEAEC71042A03D13E
:105980004FFA8CFC4FEAEC71002907DA0A46002135
:10599000DCF1000C61EB02012D2202E0220504D5AE
:1059A0002B228DF80420012203E0E20701D02022FF
:1059B000F7E7904659E00A2102E010220DE010219D
:1059C0004FF0000A00910BE010224FF0000A44F063
:1059D00004040827009203E008224FF0000A009216
:1059E000C4F30252022A05D059F804CB0021032A3D
:1059F00008D009E009F1070121F00702F2E802C12D
:105A0000914605E01FFA8CFC042A01D10CF0FF0C32
:105A10004FF00008220728D5702806D0009B83F09D
:105A2000100353EA0A0305D00EE040228DF804204B
:105A3000012208E05CEA010206D030228DF8042041
:105A40008DF8050002229046009B83F0080353EA7C
:105A50000A030AD15CEA010201D1620705D53022AE
:105A60008DF804204FF001087F1E582804D034A080
:105A700003900EA802900DE036A0F9E75346604669
:105A8000009AFAF787FC84460398825C0298401ECD
:105A9000029002705CEA0100F0D1029806A9081A8F
:105AA00000F1200A600702D524F4803400E00127C9
:105AB000574502DDA7EB0A0000E0002000EB0A01D9
:105AC000009005984144401A0590E00306D45B46D7
:105AD0002146179A059800F0B3F90544002706E01F
