:020000040800F2
:10000000A80701209D010008AF090008A709000802
:10001000AB090008B9080008B30E00080000000092
:10002000000000000000000000000000690B000854
:10003000BD080008000000003D0A0008590C000837
:10004000B7010008B7010008B7010008B7010008B0
:10005000B7010008B7010008B7010008B7010008A0
:10006000B7010008B7010008B7010008B701000890
:10007000B7010008B7010008B7010008B701000880
:10008000B7010008B7010008B7010008B701000870
:10009000B7010008B7010008B7010008B701000860
:1000A000B7010008B7010008B7010008B701000850
:1000B000B7010008B7010008B7010008B701000840
:1000C000B7010008B7010008B7010008B701000830
:1000D000B7010008E10C0008B7010008B7010008EB
:1000E000B7010008B7010008B7010008B701000810
:1000F000B7010008B7010008B7010008B701000800
:10010000B7010008B7010008B7010008B7010008EF
:10011000B7010008B7010008B7010008B7010008DF
:10012000B7010008B7010008B7010008B7010008CF
:10013000B7010008B7010008B7010008B7010008BF
:10014000B7010008B7010008B7010008B7010008AF
:10015000B7010008B7010008B7010008B70100089F
:10016000B7010008B7010008B7010008B70100088F
:10017000B7010008B7010008B7010008B70100087F
:10018000B7010008B7010008DFF80CD000F092FAC0
:1001900000480047371D0008A8070120064880478F
:1001A00006480047FEE7FEE7FEE7FEE7FEE7FEE75C
:1001B000FEE7FEE7FEE7FEE7610C000889010008A4
:1001C000D2B201E000F8012B491EFBD27047002299
:1001D000F6E710B513460A4604461946FFF7F0FF46
:1001E000204610BD421C10F8011B0029FBD1801ACB
:1001F000704710B5002200E0521C835C8C5CA34267
:1002000001D1002BF8D1D8B2E1B2401A10BD30B5FF
:1002100005460020034600E05B1C934205D2EC5CDF
:10022000C85C201A01D1002CF6D130BD70B506464D
:1002300000F068FE046805460A220021304600F0FE
:1002400049F82C6070BD30B50B46014600202022D5
:10025000012409E021FA02F59D4205D303FA02F5D3
:10026000491B04FA02F52844151EA2F10102F1DC33
:1002700030BD2DE9F05F0546002092469B4688463A
:100280000646814640241BE0284641464746224612
:1002900000F031FA53465A46C01A914110D3114624
:1002A0001846224600F018FA2D1A67EB01084F464F
:1002B00022460120002100F00FFA17EB00094E4101
:1002C000201EA4F10104DFDC484631462A4643469D
:1002D000BDE8F09F2DE9F04791460F468046044661
:1002E000002614F8015B2DB100F028FA0068405D8B
:1002F000C007F6D12B2D02D02D2D18D0641E4A46F2
:100300003946204600F01EFA27B13968A14201D1D2
:10031000C7F8008071054FF002040BD54042002859
:1003200003DD00F0EFFD0460A007BDE8F08746F4B0
:100330008066E4E70028F8DA00F0E4FD04606FF07E
:100340000040F2E72DE9FE4F804681EA0300C00F2E
:100350000C46009021F0004123F00045B8EB02006C
:10036000A94105D24046214690461C460B4602460E
:1003700023F00040104347D0270DC7F30A00C3F312
:100380000A510290401A019040286BDAC3F313001F
:1003900040F4801B0098924620B10023D2EB030A60
:1003A00063EB0B0B01985946C0F14002504600F038
:1003B00093F906460D4650465946019A00F0ABF9AE
:1003C00010EB08006141002487EA115284EAE773C8
:1003D0001A4340D0009A62B3019A012A4FEA0752A9
:1003E00015DC001B61EB02014FF0004202EA0752EC
:1003F000CDE90042001C41F5801132462B4600F049
:10040000FFF903B0BDE8F08F40462146F9E7001B35
:1004100061EB0201001C41F5801300185B412018BC
:10042000A2F5001747EB030140EAD570B6196D41FC
:1004300011E06D084FEA360645EAC0754FEA0752EB
:10044000001B61EB0201001C41F5801149084FEAD5
:1004500030000019514132462B4603B0BDE8F04F41
:1004600000F0BFB90098012240000023D0EB020247
:1004700063EBE073009821464FEAE074B8EB0000AC
:1004800061EB0401E9E783F000435BE781F00041A1
:1004900058E72DE9FE4F81EA030404F0004421F0FF
:1004A000004100944FF0000B23F0004350EA010498
:1004B0005ED052EA03045BD0C3F30A54C1F30A5579
:1004C0002C44A4F2F3340194A0FB0254C1F31301B1
:1004D00041F48011C3F3130343F4801301FB02447E
:1004E00000FB034E840A970A44EA815447EA835783
:1004F000A4FB076802958D0A05FB07854FEA932C3C
:1005000004FB0C542705029D4FEA065847EA1637AC
:10051000B5EB08056EEB070C870E920E47EA8117C4
:1005200042EA8312A7FB0201B6EB0B0164EB000465
:100530002B0D43EA0C335E1844EB1C50DA4651464F
:10054000E7FB0201C5F313044FEA0B3343EA1453EC
:100550004FEA0432019C43EA0603A4F10C0402941E
:10056000009CCDE900B400F04BF903B0BDE8F08F7A
:1005700000200146F9E72DE9F04D81EA030404F07B
:10058000004B21F0004514464FF0000A23F00041D3
:1005900050EA050220D054EA01021DD0C5F30A57E3
:1005A0000246C5F31303C1F31300C1F30A5640F426
:1005B000801543F48013A7EB0608101BD64608F2FB
:1005C000FD3873EB050002D308F1010801E0921831
:1005D0005B41B8F1000F03DA00200146BDE8F08D61
:1005E00000204FF48011064684460EE0171B73EB83
:1005F000050705D3121B63EB050306434CEA010C08
:1006000049084FEA300092185B4150EA0107EDD1EA
:1006100052EA030012D082EA040083EA050108438B
:1006200005D0101BAB4106D20122002306E00022B8
:100630004FF0004302E06FF0010253101AEB060086
:100640004CEB085110EB0A0041EB0B01BDE8F04DFB
:1006500000F0C7B8C1F30A52C1F3130140F2FF33EF
:1006600041F480119A4202DA00200146704740F2BC
:1006700033439A42A2F2334202DC524200F03BB8CA
:1006800000F02AB830B5041E71F1000404DB4FF00D
:100690000044404264EB0101141E73F1000405DBC9
:1006A0001C464FF00043524263EB0403994208BFDB
:1006B000904230BD064C074D06E0E06840F0010373
:1006C00094E8070098471034AC42F6D3FFF760FD7A
:1006D000C4420008E4420008202A04DB203A00FA61
:1006E00002F1002070479140C2F1200320FA03F389
:1006F000194390407047202A04DB203A21FA02F087
:100700000021704721FA02F3D040C2F1200291404B
:10071000084319467047202A06DBCB17203A41FAD6
:1007200002F043EAE07306E041FA02F3D040C2F17E
:100730002002914008431946704700000048704766
:100740008C3E00082DE9F05F8246007800271546B0
:100750008B460AF10104B946302801D09DB113E05F
:1007600014F8010B0127782803D0582801D045B18F
:100770000AE00DB1102D07D10027102514F8010B48
:1007800002E0082500E00A250026B0460EE005FB41
:10079000080005FB06F1012701EB10461FFA80F85F
:1007A000B6F5803F00D3B94614F8010B294600F096
:1007B00075F80028EBDABBF1000F05D00FB1641E0D
:1007C00000E05446CBF80040B9F1000F06D000F02D
:1007D00099FB02210160C81EBDE8F09F48EA06406F
:1007E000FAE710B5141E73F1000408DA401C41F159
:1007F000000192185B411A4301D120F0010010BDA5
:100800002DE9F04D92469B4611B1B1FA81F202E01A
:10081000B0FA80F220329046FFF75EFF04460F46A2
:1008200040EA0A0041EA0B0153465A46084313D0F6
:10083000114653EA010019D0C8F140025046FFF7B3
:100840005AFF05460E46504659464246FFF744FFBA
:10085000084305D0012004E020463946BDE8F08D6C
:100860000020054346EAE0762C4337430A986305A7
:10087000E40AA0EB08000022FD0A44EA47540A30CB
:1008800002D500200146E9E7010510196941DDE9BB
:10089000084500196941BDE8F04DA2E73A2800D2A9
:1008A000303820F02002412A01D3A2F137008842DB
:1008B00001D34FF0FF30704700BFFEE77047F0B53F
:1008C0000A4600210023002400BF3DE0012505FA6F
:1008D00001F3156805EA03049C4234D105684F0012
:1008E0000326BE40B543056015794E00B540066845
:1008F000354305601579012D02D01579022D16D1E9
:1009000085684F000326BE40B543856055794E008B
:10091000B540866835438560456801268E40B543FD
:100920004560456896798E40B6B235434560C568E6
:100930004F000326BE40B543C560D5794E00B54093
:10094000C6683543C560491C1029BFD3F0BDF0B55A
:10095000002300244D07ED0E02FA05F3CE1000F13E
:10096000200555F826504E07F70E0F26BE40B5431A
:10097000CF1000F1200646F82750CE1000F12005D8
:1009800055F8265045EA0304CE1000F1200545F83D
:100990002640F0BD4FF6FF710160002101714171E9
:1009A0008171C171704700BFFEE700BFFEE770476D
:1009B00070B5002100230F22C4781CB3174C2468A3
:1009C00004F4E064C4F5E064C4F30721C1F1040455
:1009D000E3B20A4144789C40E1B284781440214358
:1009E0000C07210E0E4C05786155047804F01F05A4
:1009F0000124AC4005786D11AD0005F1E025C5F886
:100A0000004109E0047804F01F050124AC40054DC5
:100A10000678761145F8264070BD00000CED00E028
:100A200000E400E080E100E002490143024A116075
:100A3000704700000000FA050CED00E07047000070
:100A400029B1064A12680243044B1A6004E0034AC3
:100A500012688243014B1A60704700003038024030
:100A600029B1064A12680243044B1A6004E0034AA3
:100A700012688243014B1A607047000044380240FC
:100A8000F0B5002100220024022500260223324F67
:100A90003F6807F00C0121B1042905D0082937D19E
:100AA00005E02E4F076036E02D4F076033E02A4FF8
:100AB0003F1F3F68C7F38056274F3F1F3F6807F02F
:100AC0003F036EB1264FB7FBF3F7DFF88CC0ACF1F4
:100AD000040CDCF800C0CCF3881C07FB0CF40CE021
:100AE0001E4FB7FBF3F7DFF870C0ACF1040CDCF875
:100AF00000C0CCF3881C07FB0CF4174F3F1F3F6866
:100B0000C7F301477F1C7D00B4FBF5F7076002E0E7
:100B1000124F076000BF00BF0F4F3F6807F0F001A2
:100B20000909104F7A5C0768D74047600A4F3F6851
:100B300007F4E051890A0B4F7A5C4768D740876019
:100B4000054F3F6807F46041490B064F7A5C4768E0
:100B5000D740C760F0BD0000083802400024F40010
:100B600000127A0014000020704700000CB500202D
:100B7000019000903448006840F4803032490860A9
:100B800000BF3148006800F4003000900198401C1C
:100B90000190009818B90198B0F5A04FF1D12A48FA
:100BA000006800F4003010B10120009001E0002046
:100BB00000900098012846D123484030006840F05A
:100BC00080502149403108602048006840F440408E
:100BD0001E4908601C48083000681B49083108603D
:100BE0000846006840F4004008600846006840F489
:100BF000A05008601648091F0860081F006840F0F0
:100C00008070091F086000BF0F48006800F0007086
:100C10000028F9D040F205700E4908600A480830F3
:100C2000006820F0030008490831086008460068A1
:100C300040F00200086000BF03480830006800F080
:100C40000C000828F8D10CBD0038024000700040AC
:100C500019544007003C024000B500F035F800BDD3
:100C600010B51548006840F4700013490860134837
:100C7000006840F001001149086000200F49083168
:100C800008600E4800680E4908400C4908600D488D
:100C9000091D0860081F006820F48020091F0860F3
:100CA000002006490C310860FFF760FF4FF000603C
:100CB00001498039086010BD88ED00E0003802402D
:100CC000FFFFF6FE103000240448006820B10348FE
:100CD0000068401E014908607047000010000020B5
:100CE00010B520210A4800F032F880B1084800F021
:100CF000CBF8C4B20748006818B120460549096816
:100D0000884740F22551024800F006F800BF10BDA8
:100D1000001001400800002010B50022002340F61A
:100D20006A14A14200D100BF0A1201249440A3B268
:100D3000DC43048010BD21B1828942F400528281DB
:100D400004E082894DF6FF731A40828170470246A3
:100D50000020B1F5007F00D100BF13880B400BB11C
:100D6000012000E000207047F0B503460024002673
:100D70000025002040F66A17B94200D100BF18468E
:100D8000C1F3421401F01F06012707FA06F5012CF2
:100D900001D10C3004E0022C01D1103000E01430FD
:100DA0001AB107682F43076002E00768AF43076086
:100DB000F0BD00002DE9FF4705460E460024A14680
:100DC00000BFA046B08900B100BF2C8A24F4405473
:100DD000F08804432C82AC8941F20C608443B088D3
:100DE00031890843718908430443AC81AC8A24F4F7
:100DF0004074B0890443AC826846FFF741FE204846
:100E0000854202D01F48854202D1DDF80C9001E0F6
:100E1000DDF80890A88900F4004040B109EBC90052
:100E200000EB091031684900B0FBF1F707E009EB6E
:100E3000C90000EB091031688900B0FBF1F76420AC
:100E4000B7FBF0F004012009642101FB1078A889A8
:100E500000F4004040B1322000EBC800B0FBF1F0DC
:100E600000F00700044308E0322000EB0810642182
:100E7000B0FBF1F000F00F0004432C81BDE8FF87C8
:100E8000001001400014014001468888C0F30800AA
:100E90007047C1F30802828070474FF41651016019
:100EA00000218180C18001810C214181002181814B
:100EB000704700BFFEE700000FB4054B10B503A953
:100EC000044A029800F0F4F810BC5DF814FB00002E
:100ED000D71C0008780000207CB5044600201D4681
:100EE000164600290BD0491ECDE90041044B6A4645
:100EF0002946304600F0DCF8009A002111707CBDD4
:100F0000FB170008004870477C00002002E008C87A
:100F1000121F08C1002AFAD170477047002001E073
:100F200001C1121F002AFBD1704700002DE9FF5FAD
:100F300082B00021DDE90430020DDDF840B003434A
:100F400018D044F61050A2F2FF3242431514119803
:100F500001281FD0A5EB0B00401C5FEA000A4FF0F0
:100F600000064E4FDFF83891B046504615D5CAF10D
:100F7000000413E0119801244AA3012801D16FEA6B
:100F80000B010298119AC0E90031C0E9024206B093
:100F9000BDE8F09FCBF10000DFE704460021404AA6
:100FA000491842EB0450CDE9001012E0E00707D0E9
:100FB00032463B4640464946FFF76BFA8046894633
:100FC00032463B4610461946FFF763FA06460F467F
:100FD0006410002CEAD1DDE90401DDE90023BAF157
:100FE000000F06DAFFF755FA42464B46FFF751FA73
:100FF00005E0FFF7C0FA42464B46FFF7BCFA04464D
:101000000E460022284BFFF73DFB03D84FF0FF3080
:10101000014607E00022254B20463146FFF792F9B2
:10102000FFF718FB102409E0002C0ADB0A2200233A
:10103000FFF71FF9039B30321A55641E50EA010274
:10104000F2D1641C039AC4F111031444119A012AC9
:1010500003D0012208430DD10AE0084304D0002048
:101060004FF0110B119072E7A3EB0B056D1E0DE015
:101070005B4504DD4FF0000205F1010504E003DAF1
:101080004FF00002A5F10105002AECD00298119959
:10109000C0E90231C0E9004579E7000000001440D2
:1010A0000000F03F300000000000F0430000E03F8F
:1010B0002DE9FF4F95B09B468946064600250FE275
:1010C000252877D100242746F84A0121059400E01D
:1010D000044316F8013F203B01FA03F01042F7D118
:1010E00030782A2811D06FF02F033078A0F1300229
:1010F000092A16D8059A44F0020402EB820203EB97
:1011000042021044761C0590EFE759F8042B059233
:10111000002A03DA504244F40054059044F00204DB
:10112000761C30782E2816D116F8010F44F00404EE
:101130002A280DD06FF02F023078A0F13003092B50
:1011400009D807EB870302EB4303C718761CF3E7C4
:1011500059F8047B761C30786C280FD006DC4C28BC
:1011600017D068280DD06A2814D104E0742810D054
:101170007A280FD10DE044F400140AE044F48014FE
:1011800001E044F440147278824202D104F58014E4
:10119000761C761C307866280BD013DC582877D064
:1011A00009DC002875D04528F6D04628F4D0472819
:1011B0001AD19DE118E0632835D0642879D06528DC
:1011C00012D195E1702873D008DC6728F1D0692826
:1011D0006FD06E280DD06F2806D1B5E073282CD0C3
:1011E000752875D0782874D05A46179990476D1C89
:1011F00075E1C4F30250022809D003280DD0D9F8B4
:10120000001004280DD00D6009F1040967E1D9F838
:101210000010EA17C1E90052F6E7D9F800100D8076
:10122000F2E70D70F0E719F8041B8DF800100020AC
:101230008DF80100EA46012003E059F804AB4FF0B5
:10124000FF3061074FF0000102D40DE008F1010109
:101250008846B9420FDA8045F8DB1AF808100029F1
:10126000F4D108E008F1010188468142FADB1AF85E
:1012700008100029F6D105985B46A0EB0807214627
:101280003846179A00F094FA284400EB080507E066
:101290004DE029E10DE01AF8010B5A4617999047E5
:1012A000B8F10108F7D25B4621463846179A13E198
:1012B00042E00A220092C4F302524FF0000A022ACE
:1012C00008D059F804CB032A4FEAEC710AD00DE09C
:1012D00029E02AE009F1070121F00702F2E802C142
:1012E000914609E00FFA8CFC4FEAEC71042A03D115
:1012F0004FFA8CFC4FEAEC71002907DA0A4600210C
:10130000DCF1000C61EB02012D2202E0220504D584
:101310002B228DF80420012203E0E20701D02022D5
:10132000F7E7904659E00A2102E010220DE0102173
:101330004FF0000A00910BE010224FF0000A44F039
:1013400004040827009203E008224FF0000A0092EC
:10135000C4F30252022A05D059F804CB0021032A13
:1013600008D009E009F1070121F00702F2E802C103
:10137000914605E01FFA8CFC042A01D10CF0FF0C09
:101380004FF00008220728D5702806D0009B83F074
:10139000100353EA0A0305D00EE040228DF8042022
:1013A000012208E05CEA010206D030228DF8042018
:1013B0008DF8050002229046009B83F0080353EA53
:1013C0000A030AD15CEA010201D1620705D5302285
:1013D0008DF804204FF001087F1E582804D034A057
:1013E00003900EA802900DE036A0F9E75346604640
:1013F000009AFEF73EFF84460398825C0298401EE6
:10140000029002705CEA0100F0D1029806A9081A65
:1014100000F1200A600702D524F4803400E001279F
:10142000574502DDA7EB0A0000E0002000EB0A01AF
:10143000009005984144401A0590E00306D45B46AD
:101440002146179A059800F0B3F90544002706E0F5
:1014500001A85A46C05D179990476D1C7F1C4745EF
:10146000F6DBE0030CD55B462146179A059800F0A1
:101470009FF9054404E030205A46179990476D1CA7
:101480000099481E00900029F5DC08E002980299B6
:101490005A460078491C0291179990476D1CBAF181
:1014A0000001AAF1010AF1DC65E100000928010050
:1014B00030313233343536373839616263646566CA
:1014C000000000003031323334353637383941428C
:1014D000434445460000000000F058F90544761CDE
:1014E000307800287FF4ECAD19B02846BDE8F08FC5
:1014F000620700D4062709F1070222F0070CFCE876
:101500000223E14603F000485FEA080C02D00FF224
:10151000702C0DE05FEA045C02D50FF2682C07E046
:101520005FEAC47C02D00FF2602C01E0AFF2700CD5
:101530004FF0FF3823F00043CDF850C065280CD0A1
:1015400006DC452809D046281DD047283DD13DE07E
:10155000662818D067287ED138E00021112F01DBE2
:10156000112000E0781CCDE9000106A90EA8FFF7C4
:10157000DDFCDDE90F010E9A03910021009207F1D5
:10158000010A04914DE04FF000400097CDE90110B1
:1015900006A90EA8FFF7CAFCDDE90F0203920E9B15
:1015A00011990022DDF80CA00093049211B9791C66
:1015B00000EB010AB7EB0A0004D4C0F1FF3007F1D9
:1015C000010A0490AAEB0700019044E0012F00DA21
:1015D00001270021112F01DD112000E03846CDE95F
:1015E000000106A90EA8FFF7A1FCDDE90F010E9A84
:1015F0000391002104910092BA4621070CD403996B
:10160000514500DA8A46BAF1010F05DD009AAAF1C8
:101610000101515C302908D0B84202DA10F1040F00
:1016200006DA0121CDE9011015E0AAF10101E9E78F
:10163000002805DC049901440491AAEB000102E0B2
:10164000411C514500DD8A460499401A401C019016
:101650004FF000400290200704D40198504501DB70
:10166000CDF8048000208DF84F0002980DF14F074F
:10167000B0F1004F25D02B200E9002984FF00208B9
:1016800000280CDA404202902D200E9007E00A213B
:101690000298FEF7D8FD3031029007F8011DB8F12D
:1016A0000001A8F10108F2DC02980028EFD1791EB0
:1016B0000E980870307800F0200040F0450007F8E0
:1016C000020D12A8C01B00F107081498007800B1A1
:1016D000012000EB0A01019801EBE07105984144FB
:1016E000401A401E0590E00306D45B462146179A37
:1016F000059800F05DF805441498007818B15A4632
:10170000179990476D1CE00324D55B462146179A34
:10171000059800F04DF805441CE00498002807DB0C
:10172000DDE90301884203DD0098405C179901E080
:10173000179930205A469047049805F10105401C3E
:1017400004900198401E019004D12E205A4617990A
:1017500090476D1CBAF10001AAF1010ADDDC05E039
:1017600017F8010B5A46179990476D1CB8F1000104
:10177000A8F10108F4DC5B462146179A0598ABE610
:101780002D0000002B000000200000002DE9F0419A
:10179000044600251E461746880404D405E0394651
:1017A0002020B0476D1C641EF9D52846BDE8F081A5
:1017B0002DE9F041044600251E469046C80301D598
:1017C000302700E02027880404D505E0414638464C
:1017D000B0476D1C641EF9D52846BDE8F08170B590
:1017E00006460C46002504E0705D00F04DFB681CC9
:1017F00085B2A542F8DB20B270BD4A68002A06D047
:101800000A68531C0B6010704868401E486070479F
:101810002DE9F04104460E46002774B131462046BA
:1018200000F023F80546B5F1804F05D20C2D01D903
:10183000284600E00C20074600BF3846BDE8F0818E
:101840002DE9F05F0446894692469B460AADE0CDFD
:1018500001F080F88046214601F0A4FCBDE8F09F2D
:101860000246481E1040101A70470246481E104497
:101870004B1E9843704770B504460D46284600F04D
:10188000FDF8001D616808446060204600F030F8F3
:10189000204670BD70B505460C46284600F0EEF8AF
:1018A00004F11001884201D3012070BD0020FCE743
:1018B0000146A1F1080070477CB505460C4620465C
:1018C00000F0DCF806466A4601A900F044FA214619
:1018D0002846DDE9003200F00DFA7CBD01460879AA
:1018E00000F0010070470146087900F002007047DF
:1018F00070B50446204600F06AF805462C6028467C
:1019000070BD7CB506460C46002001900090002575
:101910006CB16A4601A9204600F03AFA01981828ED
:1019200005DA6A4601A9304600F041FB05462DB1B3
:1019300029463046DDE9003200F00FFB28467CBD29
:1019400070B504462046FFF7D3FF0546284600F051
:1019500080F8204600F078F870BD70B50446204647
:1019600000F035F80546284600F078F8204600F0EB
:1019700080F870BD70B505460C46204600F027F88B
:1019800006463046FFF7AAFF40B13146284600F030
:1019900049F831462046FFF76EFF0446204670BDE9
:1019A00070B505460C462046FFF79DFF68B12046FE
:1019B00000F035F806463146284600F033F8214657
:1019C0003046FFF758FF044600BF204670BD2DE9A2
:1019D000F0410446204600F051F8061F204600F072
:1019E00071F80746314600F06BFA05462846BDE817
:1019F000F0812DE9F04105460C46164600275CB102
:101A000032462146284600F061F82046FFF7A5FF40
:101A1000204600F057F807463846BDE8F0810146F9
:101A2000086870477CB505460C46204600F026F84D
:101A300006466A4601A900F08EF921462846DDE9EE
:101A4000003200F08AFA7CBD416841F0010141603A
:101A50007047416841F0020141607047416821F0E0
:101A6000020141607047426802F003030B43436088
:101A70007047416821F001014160704701464868A4
:101A800020F0030070472DE9F04105460C4628463A
:101A900000F018F88046211F00F012FA064628468A
:101AA000FFF7ECFF211D471A39463046FFF7DBFFF1
:101AB00021462846FFF7D7FF3046FFF741FF304663
:101AC000BDE8F081014601F1080070472DE9F041C1
:101AD00006460C46154629462046FFF7DBFE78B140
:101AE00029462046FFF7CFFF07462046FFF700FFB5
:101AF0003846FFF7AEFF39463046FFF7DDFE00BF40
:101B0000BDE8F08110B54FF44070FEF78DFF012164
:101B10001020FEF7A5FF01210846FEF791FF0121E5
:101B20001420FEF78DFF10BD2DE9F84307460C4643
:101B3000032F09D000F00EFF81460EA101F0D1FA6B
:101B40004FF0FF30BDE8F8836068FEF76FFB054695
:101B5000A068FEF76BFB064605EB060800F0FAFEF0
:101B6000814633462A460BA1CDF8008001F0B9FA30
:101B70000020E7E7546865207072616D61746572DA
:101B80007320617265206E6F7420636F727265637B
:101B9000740A00005468652073756D206F662025F7
:101BA0006420616E642025642069732025640A0026
:101BB0002DE9F04105460E4600F0CCFE044611A288
:101BC00014A101F08EFA00F0C5FE04460DA101F04B
:101BD000A9FE00F0BFFE04462A460FA101F081FADB
:101BE000002409E000F0B6FE074656F824302246ED
:101BF0000FA101F076FA641CAC42F3DB0020BDE8D3
:101C0000F081000048656C6C6F20576F726C642126
:101C10000A00000025730A00776520686176652058
:101C2000256420706172616D65746572733A0A0093
:101C3000617267765B25645D203D2025730A000094
:101C40002DE9F04180460C466068FEF7EFFA054644
:101C5000284600F07AF8064600F07CFE0746334638
:101C60002A4604A101F03DFA304600F03DF800207C
:101C7000BDE8F0814D656D6F727920616C6C6F63AA
:101C800061746564202564206279746573206174D1
:101C900020616464726573733A20307825700A009D
:101CA00010B58060C06000230361002110E00024B3
:101CB00000F1140343F82140002206E000F1740310
:101CC00003EBC11343F82200521C202AF6DB491C07
:101CD0001829ECDB10BD38B504468DF800006946C4
:101CE0000320ABBE204638BD10B50446204600F0A8
:101CF00067F810BD70B500F1740505EBC21555F815
:101D000023408C60C860E16000F1740505EBC215EA
:101D100045F823100126964005693543056100F119
:101D2000140555F8225001269E40354300F1140653
:101D300046F8225070BD00F04DF8FFF7E3FE00F0CA
:101D400077F801E001F088FFFCE710B50446204673
:101D500000F064F810BD2DE9F04104460F469046AE
:101D6000802C06D200252046E11704EB91718E10DD
:101D700009E0204601F0C9FE0546681F24FA00F07C
:101D800080F02006AD1F3D60C8F80060BDE8F0811E
:101D90002DE9F04104460D461646802C09D3204615
:101DA00001F0B3FE401F012101FA00F0471E3C4440
:101DB00000BF324629462046FFF7CDFFBDE8F0813F
:101DC00010B5044621460248006801F0A9FE10BD86
:101DD0000000002010B54FF48031074801F072FE7A
:101DE000064908600846006828B900F0B3FD0446BB
:101DF00003A101F076F910BD800000200000002052
:101E00004D656D6F727920616C6C6F636174696F81
:101E10006E206661696C6564210D0A0010B5044688
:101E200021460248006801F099FE10BD0000002024
:101E300010B501F0E7FE01F0C5FE01F0ABFE00F0C9
:101E400001F810BD10B58021094800F06BF8094970
:101E50000860094801F0FAFE08480949C1F88800FD
:101E60004FF400720749064800F0E4FE10BD000080
:101E70000C0301200C000020893C0008DF1700083B
:101E8000800001200C01012010B5044621460548C0
:101E9000FEF7FFFF00BF40210248FEF758FF002871
:101EA000F9D010BD0010014001464868401C8A6806
:101EB000904202D24868401C00E0002080B2704787
:101EC0000246501870470146D1E90020904201D1E6
:101ED000012070470020FCE710B504462046FFF7BC
:101EE000E3FF2168884201D1012010BD0020FCE7FA
:101EF0000246D2E90030984201D10020704702F139
:101F00000C001368C05C087000BF1068401C936828
:101F1000984202D21068401C00E0002080B210609D
:101F20000120EBE70246A1F10C03936010467047D5
:101F300070B504460D462046FFF7B6FF216888427B
:101F400001D1002070BD04F10C00616845542046A9
:101F5000FFF7AAFF60600120F4E7F0B5CD688C6858
:101F6000E560AC6000F1740606EBC21656F823601B
:101F70008E421BD100F1740606EBC21646F82340D0
:101F8000844213D100F1140656F8226001279F40C5
:101F9000BE4300F1140747F822603E4656F822601F
:101FA00026B9012797400669BE430661F0BD2DE9B9
:101FB000F04704460E4617463568D7F8008004F10E
:101FC000140050F825004FF0FF3101FA08F100EA43
:101FD0000109B9F1000F16D1691C4FF0FF328A4098
:101FE000206900EA020ABAF1000F02D10020BDE820
:101FF000F087504601F07DFD0546356004F1140080
:1020000050F8259000BF484601F073FD8046C7F8A0
:10201000008004F1740000EBC51050F82800E6E7DA
:102020000146002009E0074A52F820201AB9054A63
:1020300042F820107047421C10B20328F3DB00BFA7
:10204000F8E700008C03012010B50446012120466A
:1020500000F073F810BD000010B5044622689168C6
:102060002069FEF7C6F860B994F8800020F00100FE
:10207000401C84F8800008480168204601F052FCAA
:1020800004E00548416B204601F04CFC0020A08193
:102090000021E18110BD00002400002002460878E4
:1020A00048B1487800F00F00082804D00878136879
:1020B0001B78184050B192F8800000F0010018B968
:1020C0004878C0F3001008B1002070474FF0FF308F
:1020D000FBE7000010B500F03DFC044624B10348C6
:1020E000816B204601F01EFC10BD00002400002082
:1020F00070B50446A189E089081A05B205E02021DF
:10210000204601F025FB681E05B2002DF7DC217B7F
:10211000204600F07FF870BD10B500F01BFC0446AF
:1021200014B1204600F05CFE10BD10B504464FF01F
:10213000FF31204600F001F810BD2DE9F0410446C2
:102140000D46681C08B9012000E000200746E08920
:1021500008B9012D05D0E089A189884203D1681C06
:1021600008B9BDE8F081E089A189884210D1012D2C
:102170000ED1E089401EE081A089401EA08100218F
:10218000A289206981540121204600F043F83FE0F4
:1021900038460AE0E18901442269525CE189014440
:1021A000491E23695A54411C08B2A289E189511A77
:1021B0008142EFDCA089401EA08137B9E089401E32
:1021C000E0810821204601F0C3FA0021A28920699C
:1021D0008154E08906B206E02069815D204601F065
:1021E000B7FA701C06B2A089B042F5DC2021204667
:1021F00001F0AEFAA189E089081A401C06B205E098
:102200000821204601F0A4FA701E06B2002EF7DC69
:1022100000BFA6E770B505460C4603E004A12846BA
:1022200001F080FB201EA4F10101CCB2F6D170BDFB
:102230000820080010B504464FF0FF31204600F09A
:102240005BFC10BD10B50446204600F005F80121E6
:10225000204601F0EDFA10BD70B50446A08900B922
:1022600070BD0021A2892069815494F8800000F09B
:10227000010018B3204600F0A0FC204600F0E6FE66
:102280000021E181A181B4F8560000B9E8E70EA170
:10229000204601F047FB00232046A26F616901F050
:1022A00008F8054625B12946204600F0A9FF04E0BC
:1022B00006488169204601F035FB02E02046FFF721
:1022C000CBFE00BFCCE700000D0A00002400002078
:1022D00010B50246114600200B78302B07D14B7801
:1022E000782B02D04B78582B01D103200EE00B78CD
:1022F000302B07D14B78622B02D04B78422B01D187
:10230000012003E00B78302B00D1022006E00B788F
:102310002E2B03D14B780BB1042003E011F8014BB5
:10232000002CF4D100BF10BD0246511C00200B78D8
:102330005C2B1AD14B786E2B0ED004DC302B0FD0D7
:10234000622B0FD104E0722B04D0742B0AD105E06C
:10235000082009E00D2007E00A2005E0092003E03D
:10236000002001E0487800BF00E0087870470000D6
:102370002DE9F84F05464FF0000A4FF00A0B2C46A6
:1023800000200090012600279FED330A10EE109ADE
:10239000804628782D2800D1B61E711C09B901216C
:1023A00000E000214819FFF793FF8246BAF1010FC0
:1023B0000FD0BAF1020F07D0BAF1030F0ED14FF0D0
:1023C000100B022000900AE04FF0080B0120009053
:1023D00005E04FF0020B0220009000E000BF00BFBC
:1023E00000982918701C08B9012000E000200C1882
:1023F00011E020782E2803D14FF00108641C0AE078
:10240000207800F04CFA07FB0B0708EB88004FEA36
:102410004008641C00BF20780028EAD1BAF1040FFC
:1024200017D1B8F1000F14D000EE107AB8EE401AB0
:1024300000EE108AB8EE400AC1EE000A00EE106A03
:10244000B8EEC00A20EE800A10EE109A4846BDE8A9
:10245000F88F07FB06F0FAE70000000070B50546AC
:102460000C462078272805D1607818B12046FFF760
:102470005BFF70BD20782D2805D02078302806DB42
:102480002078392803DC2046FFF772FFF1E7207837
:10249000242806D1607820B12146284600F02EF885
:1024A000E7E7207818B1204600F003F8E1E70020C4
:1024B000DFE770B50446254600262078222802D1A1
:1024C000601C0446054613E028785C2805D1681E88
:1024D000FFF72AFFA0556D1C07E02878222802D1BB
:1024E0000020A05501E02878A0556D1C701C86B214
:1024F00028780028E8D1A055204670BD70B5044664
:102500000D460023691C2046A26F00F0D2FE06464D
:1025100026B13146204600F037FA70BD0020FCE7B6
:102520001FB5A2B0402112A8FDF751FE2398807874
:1025300000F00F012498401E814204DD239880782A
:1025400000F00F0001E02498401E11900020109030
:1025500010E01098401C259951F8200001460F907A
:102560002298FFF77BFF12AA109942F821001098D9
:10257000401C10902498401E10998842E9DC119864
:1025800010287DD2DFE800F0080E17233243566B87
:10259000849DB8D5F8F6F5F42398806810908047AC
:1025A00026B010BD12981090239880680F90DDE936
:1025B0000F108847F4E71398109012980F90239803
:1025C00080680E90DDE90E2010999047E8E7149896
:1025D000109013980F9012980E90239880680D9089
:1025E000DDE90D30DDE90F129847D9E71598109015
:1025F00014980F9013980E9012980D90239880685D
:102600000C90DDE90C400EA90EC9A047C8E716984A
:1026100000901598109014980F9013980E9012989F
:102620000D90239880680C90DDE90C400EA90EC92E
:10263000A047B5E7DDE91601CDE900011598109036
:1026400014980F9013980E9012980D90239880680C
:102650000C90DDE90C400EA90EC9A047A0E7DDE90A
:1026600016121898CDE9001202901598109014983F
:102670000F9013980E9012980D902398806800E0A8
:102680000AE10C90DDE90C400EA90EC9A04787E7CE
:10269000DDE91623DDE91810CDE90023CDE90210AC
:1026A0001598109014980F9013980E9012980D9002
:1026B000239880680C90DDE90C400EA90EC9A04754
:1026C0006EE7DDE91723DDE91901CDE90123CDE945
:1026D0000301169800901598109014980F90139875
:1026E0000E9012980D90239880680C90DDE90C40B4
:1026F0000EA90EC9A04753E7DDE91823DDE91A103A
:10270000CDE90223CDE90410DDE91601CDE9000190
:102710001598109014980F9013980E9012980D9091
:10272000239880680C90DDE90C400EA90EC9A047E3
:1027300036E7DDE91A311C9A1998CDE90431069281
:102740000390DDE916121898CDE900120290159851
:10275000109014980F9013980E9012980D90239843
:1027600080680C90DDE90C400EA90EC9A04717E760
:102770006BE045E021E0FFE7DDE91A23DDE91C100D
:10278000CDE90423CDE90610DDE91623DDE91810B3
:10279000CDE90023CDE902101598109014980F9000
:1027A00013980E9012980D90239880680C90DDE994
:1027B0000C400EA90EC9A047F2E6DDE91C321E99B5
:1027C0001B98CDE9063208910590DDE91723DDE974
:1027D0001910CDE90123CDE9031016980090159842
:1027E000109014980F9013980E9012980D902398B3
:1027F00080680C90DDE90C400EA90EC9A047CFE619
:10280000DDE91C23DDE91E10CDE90623CDE9081022
:10281000DDE91823DDE91A10CDE90223CDE9041022
:10282000DDE91601CDE900011598109014980F907C
:1028300013980E9012980D90239880680C90DDE903
:102840000C400EA90EC9A047AAE6DDE91D23DDE96B
:102850001F10CDE90723CDE90910DDE91923DDE9D2
:102860001B10CDE90323CDE90510DDE916121898F8
:10287000CDE9001202901598109014980F901398BB
:102880000E9012980D90239880680C90DDE90C4012
:102890000EA90EC9A04783E64FF0FF3080E601463F
:1028A000302905DB392903DCA1F13000C0B27047C3
:1028B000612905DB662903DCA1F15700C0B2F6E708
:1028C000412905DB462903DCA1F13700C0B2EEE760
:1028D0000020ECE70146487800F00F00012801DCF9
:1028E000C8687047487800F00F00072801DCC86806
:1028F000F7E7487800F00F00082801DCC868F0E727
:10290000C868EEE710B50446002004E03021104A04
:102910001154411CC8B20928F8DB607800F00F00A0
:10292000012801DC606810BD607800F00F00072806
:1029300001DC6068F7E7607800F00F00082801DC30
:102940006068F0E70249606800F0CDFE0048EAE701
:1029500098030120002111E00A4850F8210058B1E5
:10296000084850F8210090F88000C0F3400018B1EA
:10297000044850F821007047481C01B20329EBDBE2
:102980000020F8E78C03012070B506460C460025B0
:10299000607800F00F00801E06281BD2DFE800F0F0
:1029A00003060A0D0E10A068056814E0A068B0F9CF
:1029B000005010E0A06805780DE000BFA5680AE0AF
:1029C000A068406818B1A26803CA884700E00020E8
:1029D000054600E000BF00BF284670BD2DE9F04766
:1029E00004468846B8F1000F01D1BDE8F0871827EA
:1029F0004FF00009B4F8580000F47F4018B10027E8
:102A00006FF0FF090EE0A06D00F47F0018B10827F9
:102A1000DFF8B49006E0A06D00F07F4010B1102701
:102A20004FF07F49A66F00253EE006EB0510407889
:102A300000F00F00092835D106EB05112046FFF7FD
:102A40002DFB70BB06EB0510406800EA0900A16D84
:102A5000884227D106EB05104068FF21B9400840A5
:102A600008FA07F188421DD108FA07F1A06D084362
:102A7000A0654FF0000847B106EB05104068A7F1CC
:102A80000801FF228A40104058B906EB0510806803
:102A900020B106EB05108168204688470021A1651A
:102AA00006E0FFE7681C05B27C20005BA842BCDCA6
:102AB00000BFB8F1000F05D00021A16541462046B6
:102AC00000F0B6FA00BF90E70000FFFF70B50446C3
:102AD0000D46FFF73FFF064606B970BD012C03D136
:102AE000304600F077F905E0012C03DD30466968D7
:102AF00000F068FE00BFF0E770B504460D46002DFB
:102B000025DDB4F974107420005B401E02B27420FD
:102B100002537020025B7220005B824202DD702053
:102B2000005B01E07220005B404281421DDC7020AE
:102B3000015B7220005B814202DD7020005B01E0DE
:102B40007220005B404201B2742001530DE0002D61
:102B50000ADA7420005B401C01B274200153002982
:102B600003DD0021015370BDFDE72046FFF7C0FAE9
:102B70007420005B18B90021A181E1811BE0722063
:102B8000005B401DB4F974100844052190FBF1F27C
:102B900001FB120104F15C0050F82160314620690C
:102BA00000F0E2FCA08100B9DDE7A189E1812046C7
:102BB000216900F0B7FE00BFD5E710B5044600213B
:102BC000742001537020005B002810DD7222125B1C
:102BD00021690AB9052201E07222125B521E04F13A
:102BE0005C0353F82200FDF704FB00B910BD72220C
:102BF000135B04F15C0252F82300216900F0B4FC7D
:102C000028B17220005B401C81B2722001537020F9
:102C1000005B401C81B270200153052901DD0521B4
:102C200001537220005B052802DB00217220015352
:102C300000BFDBE72DE9F04104460D4616460020B3
:102C4000A0810021E181206094F8800020F0010043
:102C5000401C84F880002561062096FBF0F0A4F863
:102C6000540074200153702001537220015300203E
:102C70000AE0B4F85420411C02FB015204F15C014B
:102C800041F82020411C08B20528F2DB0C48A0675F
:102C90000C4801887C2001532046FFF7C1F900232E
:102CA00009A12046A26F00F004FB074639462046E2
:102CB00000F03CFB0121204600F0BAFDBDE8F081A8
:102CC000A83C0008083E00084D72000070B504469C
:102CD0000D46A189B4F85400401E81420DDB3148F5
:102CE0004168204600F01EFE0121204600F0A0FDB4
:102CF0002046216900F016FE70BDE089A189884256
:102D000010D1A189481CA081206945540021A289C5
:102D100020698154E089401CE0812946204600F06A
:102D200017FD3CE0E089A189884238DAA289E1896F
:102D3000511A08B20AE0E1890144491E2269525C35
:102D4000E189014423695A54411E08B20028F2DC8B
:102D5000E189481CE081206945540021A089401C7C
:102D600080B22269A0811154E089401E06B206E0BB
:102D70002069815D204600F0EBFC701C06B2A08942
:102D8000B042F5DCA189E089081A06B205E0082105
:102D9000204600F0DDFC701E06B2002EF7DC00BFFE
:102DA000AAE700002400002010B5FFF7D3FD044679
:102DB00014B1204600F0B8F810BD10B50446E08903
:102DC000002806DD0821204600F0C2FCE089401EF4
:102DD000E08110BD10B50446204600F001F810BD9A
:102DE00070B50546AE6F10488168284600F09AFD20
:102DF000002413E006EB0410407800F00F000128D7
:102E00000ADC06EB04112846FFF748F920B906EB67
:102E10000411284600F00AF8601C04B27C20405BD4
:102E2000A042E7DC70BD0000240000202DE9F04145
:102E300007460C462046FFF765FD054629463846FD
:102E400000F070FDC0F1160006B2002E01DD304624
:102E500000E00420064600BF2021384600F078FC40
:102E6000701E00B2061EF7D1607800F00F00012836
:102E700005DC2A48016C384600F054FD25E06078F6
:102E800000F00F00072805DC2448416C384600F0AC
:102E900049FD1AE0607800F00F00082805DC1F48A3
:102EA000816C384600F03EFD0FE0607800F00F00C6
:102EB000092805DC1948C16C384600F033FD04E0F0
:102EC0001648016D384600F02DFD15A1384600F07A
:102ED00029FD07250DE020780122AA40104008B105
:102EE000782000E02D200146384600F031FC681EB5
:102EF00045B2002DEFDA0AA1384600F013FD204656
:102F0000FFF7E8FC05462946384600F029FC05A1F4
:102F1000384600F007FDBDE8F081000024000020E5
:102F2000202000000D0A000070B50646B56F13485A
:102F30004169304600F0F6FC00241AE005EB04106D
:102F4000407800F00F00082811DD05EB04104078F0
:102F500000F00F0009280ADC05EB04113046FFF7EA
:102F60009DF820B905EB04113046FFF75FFF601CA8
:102F700004B27C20805BA042E0DC70BD2400002015
:102F800070B50646B56F13480169304600F0CAFCBB
:102F900000241AE005EB0410407800F00F00072829
:102FA00011DD05EB0410407800F00F0008280ADC62
:102FB00005EB04113046FFF771F820B905EB041159
:102FC0003046FFF733FF601C04B27C20805BA042D8
:102FD000E0DC70BD2400002070B50646B56F1348D4
:102FE000C168304600F09EFC00241AE005EB041096
:102FF000407800F00F00012811DD05EB0410407847
:1030000000F00F0007280ADC05EB04113046FFF73B
:1030100045F820B905EB04113046FFF707FF601CA7
:1030200004B27C20805BA042E0DC70BD2400002064
:1030300070B504460D4694F8800020F0040084F832
:10304000800029462046FFF741FE70BDF0B5002202
:103050000123002106E0002500F1140444F821506A
:103060004C1C21B21029F6DB0024A0F856400021A8
:1030700033E032B90469645C202C28D00469645CB4
:103080002CB30469645C222C04D10AB9012400E049
:1030900000242246012B0FD1B0F85640102C0ADA3A
:1030A00004696518B0F85660741CA0F8564000F129
:1030B000140444F8265000230469645C5C2C0AD193
:1030C0004C1C05692C5D34B14C1CA1B203E00025F9
:1030D0000469655401234C1CA1B284898C42C8DC6C
:1030E000F0BD0FB410B5ADF5027D044624B90DF561
:1030F000027D10BC5DF814FB86A8019040F2FF1120
:1031000002A8019B859AFDF7E7FE0020019002A925
:10311000204600F007FC00BFE9E770B50446002533
:103120002BE004F1140050F82500007822280CD17F
:10313000002104F1140050F82500017004F114007E
:1031400050F82510491C40F8251004F1140151F8DD
:103150002500FDF747F886B204F1140050F8251059
:10316000701E085C222806D1002104F1140050F8DA
:103170002520701E1154681C85B2B4F85600A84270
:10318000CFDC70BD10B50446E089A189884207DA1A
:10319000E289501CE0812069815C204600F0D8FA69
:1031A00010BD000070B504460D4604B115B94FF0CE
:1031B000FF3070BD94F88000C0F340062846FDF74C
:1031C00011F8B4F85410491E884207D90B484168D9
:1031D000204600F0A7FB4FF0FF30EAE729462069C0
:1031E00000F0C2F9A0812046FFF736F894F880007D
:1031F00066F3410084F880000020DAE72400002014
:1032000070B504460D46002694F8800020F00200B8
:10321000801C84F88000687800F00F0090B9204688
:10322000FFF77BFFB4F8560004F11401AA68904739
:1032300006466878C0F3401048BB3146204600F08F
:103240002BFB2EE0687800F00F00012811D1B4F8B4
:10325000562004F1140329462046FFF761F906467B
:103260006878C0F3401090B93146204600F014FB56
:1032700017E0687800F00F00022809DB687800F09A
:103280000F00072804DC2946204600F0F7F808E084
:10329000687800F00F00082803D12946204600F086
:1032A00045F894F8800020F0020084F88000304651
:1032B00070BD2DE9F0470646884614461F467C201F
:1032C000805BB16F611AA0EB11101FFA80F9002525
:1032D00028E004EB0510407800F00F00092805D025
:1032E00004EB05113046FEF7D9FE00B118E004EBFF
:1032F0000510FFF707FB824647B951464046FCF7E9
:1033000078FF60B904EB0510BDE8F0873A465146F6
:103310004046FCF77CFF10B904EB0510F4E700BF52
:10332000681C85B24D45D4DB0020EDE770B504463E
:103330000D462560A86860B1A868FCF753FF40B14E
:10334000B4F85600022806DBA169A868FCF751FF13
:1033500008B9012000E0002014F8801F60F300018C
:10336000217014F8800900F0010020B102480168C2
:10337000204600F0D7FA70BD240000202DE9F0416E
:1033800006460F46FFF7E6FA054615B90020BDE8E8
:10339000F081002331462846AA6FFFF78AFF0446D2
:1033A00034B91148816A284600F0BCFA0020EEE7E3
:1033B000607800F00F00022804DB607800F00F0056
:1033C00007280ADD3146284600F0ACFA0648416A73
:1033D000284600F0A7FA0020D9E73A4621462846B9
:1033E00000F004F8D3E700002400002070B5064682
:1033F0000C4615466078C0F3801028B11E48016A5B
:10340000304600F08FFA32E0607800F00F00801E46
:1034100006282AD2DFE800F003060A0D1218A06879
:10342000056023E029B2A06801801FE0A068057054
:103430001CE02946A06800F097F817E00E48C16923
:10344000304600F06FFA11E0A068806860B1A068B3
:10345000006828B1A1688A6808682946904703E097
:10346000A06881682846884700E000BF00BF214669
:10347000304600F003F870BD24000020FEB505467C
:103480000C4626A207CA8DE8070021462846FFF70A
:103490007BFA07462846616800F044FA22A12846D4
:1034A00000F040FA607800F00F0005280CD11FA151
:1034B000284600F037FA3946284600F033FA1BA1B7
:1034C000284600F02FFA21E06946384600F0E0F87F
:1034D000C0F10B00694646183146284600F022FA32
:1034E00013A1284600F01EFA002004E030210DF858
:1034F0000010411C08B20B28F8DB6946384600F082
:10350000F2F86946284600F00DFA00BF00BF0AA194
:10351000284600F007FA3846FEBD00003030303053
:103520003030303030303000203D200022000000AC
:103530002C203078000000000D0A000030B5024653
:103540000B460020002108E0545C5D5CAC4200D0DA
:1035500008E0441CA0B24C1CA1B2545C14B15C5CE9
:10356000002CF1D100BF30BD0246002003E00B5C0F
:103570001354431C98B20B5C002BF8D113547047C2
:103580002DE9F84F0446B4F854A04FF00008002588
:10359000A08938B92046FFF71DFC0121204600F024
:1035A00047F970E0A08900286DDD0021A28920691B
:1035B0008154A66F002737E006EB07112046FEF77F
:1035C0006DFD78BB06EB0710FFF79CF98346594663
:1035D0002069FFF7B3FFA189884223D1F5B1012DFE
:1035E00003D12AA1204600F09DF906EB08112046E0
:1035F000FFF71CFC06EB0710FFF784F9834606EB88
:103600000810FFF77FF959460090FFF797FF8146B2
:10361000CA4501DD484600E0504682461FFA87F859
:10362000681C85B2781C07B27C20005BB842C3DC02
:103630000DB9BDE8F88F012D02D12046FEF758FDE7
:103640004DB106EB0810FFF75DF9074639462069D2
:10365000FFF78AFFA081012D0ADD06EB0811204645
:10366000FFF7E4FB0121204600F0E2F8A4F80CA0EB
:103670000021A28920698154A189E1812046216924
:1036800000F050F900BF00BFD3E700000D0A0000B2
:1036900030B502460B241346002A00DA53420020BC
:1036A000C8720DE00A2093FBF0F500FB15303030B6
:1036B000C5B2601EC0B204460D540A2093FBF0F35D
:1036C000002BEFD1002A04DA2D25601EC0B204467B
:1036D0000D5422B93025601EC0B204460D54C4F109
:1036E0000B0040B230BD30B502460B460824002026
:1036F00018720EE002F00F01092902DD01F15700F6
:1037000001E001F13000C5B2601EC0B204461D5494
:103710001209002AEED1C4F1080040B230BD10B544
:10372000044601212046FFF7E7F910BD10B5FFF769
:1037300011F9044614B12046FFF722FC10BD10B564
:10374000FFF708F9044614B12046FFF745FC10BD09
:1037500013B50446012101A8D4F8882090471CBD68
:103760002DE9F04104460F4600253E46D4F8880076
:1037700010B90020BDE8F08102E0761C681C85B21B
:10378000307828B130780D2802D030780A28F4D16A
:10379000242D0ADD24213846D4F8882090470321BF
:1037A00007A0D4F88820904704E029463846D4F88A
:1037B00088209047242D01DD2420DBE72720D9E74E
:1037C0002E2E2E002DE9F04104460E4600233146F0
:1037D0002046A26FFFF76DFD0546EDB11248C16AA4
:1037E000204600F09FF82846FFF78CF80746394638
:1037F000204600F097F80DA1204600F093F82846E7
:10380000FFF768F807463946204600F08BF807A115
:10381000204600F087F804E003488169204600F064
:1038200081F8BDE8F0810000240000200D0A0000AE
:1038300070B504460D4694F8800000F00100D8B140
:103840001DB110A1204600F06DF8206841682046A7
:1038500000F068F80CA1204600F064F8A06808B1F8
:10386000A06800E009A00146204600F05BF808A12E
:10387000204600F057F804E00648016B204600F0AF
:1038800051F870BD0D0A00003A0000002F00000042
:103890002420000024000020FEB505460C4618A296
:1038A000D2E900109268CDE90102009117A12846E3
:1038B00000F038F869462046FFF7EAFEC0F10B0039
:1038C000694646183146284600F02CF812A12846D1
:1038D00000F028F8002004E030210DF80010411C11
:1038E00008B20B28F8DB69462046FFF7FCFE694664
:1038F000284600F017F80AA1284600F013F8FEBD8C
:103900003030303030303030303030005265747507
:10391000726E3A20000000002C2030780000000079
:103920000D0A00002DE9F04104460D4600262F4601
:10393000D4F8880010B90020BDE8F08101E0701CC7
:1039400086B217F8011B0029F9D131462846D4F870
:103950008820904780B2EFE72DE9F04780460C467B
:10396000174600F011F90546781B0421FDF778FF92
:103970000646E11704EB91718910A4EB810131B186
:1039800004211CA0FDF798FA0020BDE8F0870C2E5A
:1039900002D3B6F1804F08D905F1804205F10C0140
:1039A00021A0FDF789FA0020EFE76FF00301204620
:1039B000FEF786FA814631464846FEF754F84846F7
:1039C000FEF742F84846FEF749F849464046FDF7FB
:1039D00073FF4846FDF78CFF824600215046FEF7F4
:1039E00042F85046FEF745F85046FEF732F82046BA
:1039F000CBE70000746C73665F6164645F706F6F27
:103A00006C3A204D656D6F7279206D75737420620C
:103A10006520616C69676E65642062792025752078
:103A200062797465732E0A00746C73665F616464F6
:103A30005F706F6F6C3A204D656D6F72792073699E
:103A40007A65206D75737420626520626574776590
:103A5000656E20257520616E64202575206279745D
:103A600065732E0A0000000010B50446E11704EB50
:103A700091718910A4EB810129B1042104A0FDF703
:103A80001BFA002010BD2046FEF70AF92046F9E790
:103A9000746C73665F6372656174653A204D656D21
:103AA0006F7279206D75737420626520616C69672F
:103AB0006E656420746F2025752062797465732E9D
:103AC0000A0000002DE9F04104460D462046FFF7AC
:103AD000CBFF064600F05AF82F1A00F057F800EB1B
:103AE00004083A4641463046FFF736FF3046BDE807
:103AF000F08101460A1E05D092FAA2F0B0FA80F0D9
:103B0000401C00E00020401E7047014621B1B1FA80
:103B100081F0C0F1200000E000200246501E7047F6
:103B20002DE9F04105460C46B4B12E462046FDF77E
:103B3000BFFE07463846FDF703FF39463046FDF71E
:103B40002FFF074639463046FDF714FF0746394632
:103B50003046FDF7B1FE00BFBDE8F0812DE9F04130
:103B600004460D46264604212846FDF751FE074629
:103B700039463046FDF7C5FE80463A464146304656
:103B8000FDF737FFBDE8F0810820704740F674402C
:103B90007047000008B525208DF8000000208DF842
:103BA00001008DF8020001208DF803006846FCF743
:103BB000FFFE012240F225510148FDF7D5F808BD6E
:103BC000001001401FB56846FDF767F94FF4E1307A
:103BD00000900020ADF80400ADF80600ADF8080034
:103BE0000C20ADF80A000020ADF80C00694604482E
:103BF000FDF7E0F801210248FDF79DF81FBD000028
:103C0000001001401CB56846FCF7C4FE4FF4C060CC
:103C1000009002208DF8040000208DF8060001209D
:103C20008DF8070002208DF8050069460648FCF76C
:103C300046FE072209210448FCF789FE07220A21D3
:103C40000148FCF784FE1CBD0000024001490860E9
:103C5000704700000800002010B508480068FEF713
:103C600032F948B9064905480068FEF741F90448A9
:103C700001780448FEF7B2FE10BD00000C000020E1
:103C8000040000208000012010B5044605480068AB
:103C9000FEF722F920B9214602480068FEF748F9EC
:103CA00010BD00000C00002000080000F0410008DA
:103CB000C04200082C42000800010000F441000846
:103CC0007D330008144200080009000000415B1B1E
:103CD0001F370008EC4100080009000000425B1B90
:103CE00035220008DC4100080019000000435B1B7E
:103CF000853100086C4200080019000000445B1B7D
:103D0000BB2D000864420008000900000000000903
:103D10008135000858410008001900000000000823
:103D20004920000890410008001900000000007FB1
:103D30002B210008AC410008001900007E335B1BFA
:103D40002B210008AC410008001900000000000A07
:103D5000452200083C420008001900000000000D48
:103D6000452200083C42000800200000E441000811
:103D7000CD2A000838410008002100005442000804
:103D80002D3700081C4200080021000044420008B2
:103D90001921000880410008002100004C42000861
:103DA0003F37000804420008002100005C42000880
:103DB000A92D00087442000800210000FC41000801
:103DC000D52000089C41000800210000B4410008F3
:103DD00041180008844200080020000074410008D7
:103DE000B11B000860410008002000005C41000891
:103DF000291B0008B841000800200000D841000835
:103E0000411C00089C420008160000404040404011
:103E1000404040404141414141404040404040409D
:103E200040404040404040404040400502020202C5
:103E300002020202020202020202022020202020CC
:103E40002020202020020202020202029090909084
:103E50009090101010101010101010101010101062
:103E600010101010101002020202020288888888C6
:103E700088880808080808080808080808080808C2
:103E80000808080808080202020240000B3E000869
:103E90000D0A436F6D6D616E64204C6973743A0D49
:103EA0000A0000000D0A566172204C6973743A0DC5
:103EB0000A0000000D0A55736572204C6973743A4C
:103EC0000D0A00000D0A4B6579204C6973743A0D98
:103ED0000A000000436F6D6D616E64206E6F742088
:103EE000466F756E640D0A000D0A5761726E696E39
:103EF000673A20436F6D6D616E6420697320746F43
:103F00006F206C6F6E670D0A00000000206973203F
:103F10006E6F742061207661720D0A0063616E27F6
:103F200074207365742072656164206F6E6C7920F3
:103F30007661720D0A00000063616E27742073655C
:103F40007420706F696E7465720D0A000D0A205F2F
:103F50002020202020202020205F2020205F2020E3
:103F60002020202020202020202020202020202051
:103F70005F202020202020202020205F205F200D97
:103F80000A7C207C202020205F5F5F7C207C5F7C7F
:103F9000207C5F205F5F5F205F205F5F2020205FCD
:103FA0005F5F7C207C5F5F2020205F5F5F7C207CE8
:103FB000207C0D0A7C207C2020202F205F205C208C
:103FC0005F5F7C205F5F2F205F205C20275F5F7C2E
:103FD000202F205F5F7C20275F205C202F205F2028
:103FE0005C207C207C0D0A7C207C5F5F7C20205F35
:103FF0005F2F207C5F7C207C7C20205F5F2F207CDB
:10400000202020205C5F5F205C207C207C207C20A6
:10401000205F5F2F207C207C0D0A7C5F5F5F5F5FED
:104020005C5F5F5F7C5C5F5F7C5C5F5F5C5F5F5F72
:104030007C5F7C202020207C5F5F5F2F5F7C207C6A
:104040005F7C5C5F5F5F7C5F7C5F7C0D0A0D0A427A
:1040500075696C643A202020202020204A756C204D
:10406000203920323032342031373A32353A353146
:104070000D0A56657273696F6E3A20202020203336
:104080002E312E320D0A436F707972696768743A67
:104090002020202863292032303230204C6574746F
:1040A00065720D0A000000000D0A70617373776F6E
:1040B0007264206572726F720D0A00005661722080
:1040C0006E6F7420466F756E740D0A001B5B324B69
:1040D0000D000000434D44200000000056415220D6
:1040E000000000004B45592000000000636F6D6D1B
:1040F000616E642068656C70206F662000000000AF
:104100000D0A506C6561736520696E70757420705E
:10411000617373776F72643A000000004E4F4E4532
:10412000000000001B5B324A1B5B314800000000AE
:10413000555345520000000073686F7720636F6D20
:104140006D616E6420696E666F0D0A68656C702023
:104150005B636D645D000000746162006164640013
:104160005072696E742068656C6C6F20776F726C2A
:104170006400000068656C6C6F776F726C6400009F
:104180006C69737420616C6C20636D6400000000C6
:104190006261636B7370616365000000636C6561ED
:1041A0007220636F6E736F6C6500000064656C65F0
:1041B00074650000736800004765742074776F2091
:1041C0006E756D6265727320616E64206164642037
:1041D0007468656D000000006D656D00646F776E3A
:1041E0000000000068656C70000000007570000041
:1041F0004D7200007365745661720000636C6561F6
:10420000720000006C69737420616C6C20766172BE
:104210000000000073657420766172006C6973742D
:1042200020616C6C207573657200000064656661C6
:10423000756C74207573657200000000656E74659E
:1042400072000000636D6473000000007661727399
:104250000000000075736572730000006B65797370
:10426000000000006C6566740000000072696768F9
:10427000740000006C69737420616C6C206B65794C
:104280000000000072756E20636F6D6D616E6420BA
:104290006469726563746C7900000000416C6C6F36
:1042A0006361746573206120737065636966696515
:1042B000642062797465206F66206D656D6F727918
:1042C00000000000E4420008000000208000000020
:1042D0000C0F00086443000880000020280701003C
:1042E0001C0F00080000000000000000000000009B
:1042F00000000000000000000000000001020304B4
:1043000001020304060708094C3F0008E83E0008C4
:10431000903E0008A43E0008B43E0008C43E0008D9
:10432000D43E0008383F00081C3F00080C3F00083E
:10433000BC400008EC40000800410008A84000080C
:1043400024410008CC400008D4400008DC400008AC
:1043500030410008E44000081C4100080000000053
:044360000000000059
:040000050800018965
:00000001FF
