:020000040800F2
:10000000403201205D0200085F0400080704000878
:100010005B040008190300081F0A00080000000024
:100020000000000000000000000000009D0100082A
:100030001D03000800000000F9010008D5070008B2
:1000400077020008770200087702000877020008AC
:10005000770200087702000877020008770200089C
:10006000770200087702000877020008770200088C
:10007000770200087702000877020008770200087C
:10008000770200087702000877020008770200086C
:10009000770200087702000877020008770200085C
:1000A000770200087702000877020008770200084C
:1000B000770200087702000877020008770200083C
:1000C000770200087702000877020008770200082C
:1000D000770200087108000877020008770200081C
:1000E000770200087702000877020008770200080C
:1000F00077020008770200087702000877020008FC
:1001000077020008770200087702000877020008EB
:1001100077020008770200087702000877020008DB
:1001200077020008770200087702000877020008CB
:1001300077020008770200087702000877020008BB
:1001400077020008770200087702000877020008AB
:10015000770200087702000877020008770200089B
:10016000770200087702000877020008770200088B
:10017000770200087702000877020008770200087B
:100180007702000877020008DFF80CD000F0B2F820
:1001900000480047D10B0008403201202C4B196861
:1001A0000868B0E8F04F80F30988BFF36F8F4FF015
:1001B000000080F3118870470000000008480068C4
:1001C000006880F308884FF0000080F3148862B65E
:1001D00061B6BFF34F8FBFF36F8F00DF00BF00BF6B
:1001E00008ED00E0DFF80C00016841F470010160E7
:1001F000704700BF88ED00E0EFF30980BFF36F8F19
:10020000134B1A681EF0100F08BF20ED108A20E96A
:10021000F04F106009B44FF0500080F31188BFF325
:100220004F8FBFF36F8F01F049FD4FF0000080F357
:10023000118809BC19680868B0E8F04F1EF0100F6B
:1002400008BFB0EC108A80F30988BFF36F8F704746
:1002500028000020EFF30580704700000648804723
:1002600006480047FEE7FEE7FEE7FEE7FEE7FEE79B
:10027000FEE7FEE7FEE7FEE709080008890100083F
:1002800040EA01039B0703D009E008C9121F08C018
:10029000042AFAD203E011F8013B00F8013B521E98
:1002A000F9D27047D2B201E000F8012B491EFBD20F
:1002B00070470022F6E710B513460A460446194671
:1002C000FFF7F0FF204610BD30B50B460146002079
:1002D0002022012409E021FA02F59D4205D303FA08
:1002E00002F5491B04FA02F52844151EA2F1010289
:1002F000F1DC30BD064C074D06E0E06840F001033C
:1003000094E8070098471034AC42F6D3FFF740FF5B
:10031000F8290008182A000800BFFEE77047F0B56A
:100320000A4600210023002400BF3DE0012505FA14
:1003300001F3156805EA03049C4234D105684F00B7
:100340000326BE40B543056015794E00B5400668EA
:10035000354305601579012D02D01579022D16D18E
:1003600085684F000326BE40B543856055794E0031
:10037000B540866835438560456801268E40B543A3
:100380004560456896798E40B6B235434560C5688C
:100390004F000326BE40B543C560D5794E00B54039
:1003A000C6683543C560491C1029BFD3F0BDF0B500
:1003B000002300244D07ED0E02FA05F3CE1000F1E4
:1003C000200555F826504E07F70E0F26BE40B543C0
:1003D000CF1000F1200646F82750CE1000F120057E
:1003E00055F8265045EA0304CE1000F1200545F8E3
:1003F0002640F0BD0A04826170470AB1816101E0C4
:100400000B048361704700BFFEE71CB50446012161
:10041000206800F06BF80020009001902089009087
:1004200001208DF8040000208DF8060003208DF8CF
:10043000050000208DF8070069466068FFF76FFF30
:10044000E27A21896068FFF7D8FF1CBD10B5044629
:1004500021896068FFF7CEFF10BD00BFFEE770473F
:1004600070B5002100230F22C4781CB3174C2468F8
:1004700004F4E064C4F5E064C4F30721C1F10404AA
:10048000E3B20A4144789C40E1B2847814402143AD
:100490000C07210E0E4C05786155047804F01F05F9
:1004A0000124AC4005786D11AD0005F1E025C5F8DB
:1004B000004109E0047804F01F050124AC40054D1B
:1004C0000678761145F8264070BD00000CED00E07E
:1004D00000E400E080E100E002490143024A1160CB
:1004E000704700000000FA050CED00E029B1064A53
:1004F00012680243044B1A6004E0034A1268824304
:10050000014B1A60704700003038024029B1064A9A
:1005100012680243044B1A6004E0034A12688243E3
:10052000014B1A607047000044380240F0B50021CA
:1005300000220024022500260223324F3F6807F0E4
:100540000C0121B1042905D0082937D105E02E4F2F
:10055000076036E02D4F076033E02A4F3F1F3F68AA
:10056000C7F38056274F3F1F3F6807F03F036EB128
:10057000264FB7FBF3F7DFF88CC0ACF1040CDCF8C6
:1005800000C0CCF3881C07FB0CF40CE01E4FB7FB3B
:10059000F3F7DFF870C0ACF1040CDCF800C0CCF36A
:1005A000881C07FB0CF4174F3F1F3F68C7F3014738
:1005B0007F1C7D00B4FBF5F7076002E0124F076077
:1005C00000BF00BF0F4F3F6807F0F0010909104F4F
:1005D0007A5C0768D74047600A4F3F6807F4E051EC
:1005E000890A0B4F7A5C4768D7408760054F3F68A0
:1005F00007F46041490B064F7A5C4768D740C760F3
:10060000F0BD0000083802400024F40000127A0017
:100610001800002010B588B004464FF44070FFF772
:100620005BFF01210846FFF761FF01211020FFF762
:100630006DFF072209212248FFF7B9FE07220A2190
:100640001F48FFF7B4FE4FF4C060069002208DF8FB
:100650001C008DF81D0000208DF81E0001208DF873
:100660001F0006A91648FFF75AFE02940020ADF8B5
:100670000C00ADF80E00ADF81000ADF814000C2021
:10068000ADF8120002A90F4800F056F9012240F21D
:1006900025510C4800F02AF925208DF8040001208E
:1006A0008DF807008DF8050000208DF8060001A8E0
:1006B000FFF7D6FE0121034800F0FFF808B010BD97
:1006C000000002400010014010B5044621460548D4
:1006D00000F0A1F900BF4021024800F0FAF800281C
:1006E000F9D010BD001001400CB500200190009021
:1006F0003448006840F480303249086000BF314817
:10070000006800F4003000900198401C01900098AF
:1007100018B90198B0F5A04FF1D12A48006800F44B
:10072000003010B10120009001E0002000900098FE
:10073000012846D123484030006840F080502149CC
:10074000403108602048006840F440401E4908607D
:100750001C48083000681B490831086008460068DA
:1007600040F4004008600846006840F4A05008606B
:100770001648091F0860081F006840F08070091FB4
:10078000086000BF0F48006800F000700028F9D032
:1007900040F205700E4908600A480830006820F0F1
:1007A00003000849083108600846006840F002006C
:1007B000086000BF03480830006800F00C000828FB
:1007C000F8D10CBD003802400070004008544007CA
:1007D000003C024010B500BF502080F31188BFF3E9
:1007E0004F8FBFF36F8F00BF01F01EFE18B14FF0A7
:1007F00080500449086000BF002080F3118800BFCA
:1008000010BD000004ED00E010B51548006840F48C
:100810007000134908601348006840F00100114956
:10082000086000200F49083108600E4800680E4932
:1008300008400C4908600D48091D0860081F006841
:1008400020F48020091F0860002006490C31086050
:10085000FFF74AFF4FF0006001498039086010BD82
:1008600088ED00E000380240FFFFF6FE1030002463
:1008700010B52021084800F02CF858B1064800F0C7
:10088000C5F8C4B22046FFF71FFF40F225510248C9
:1008900000F004F810BD00000010014010B5002267
:1008A000002340F66A14A14200D100BF0A120124BD
:1008B0009440A3B2DC43048010BD21B1828942F48C
:1008C0000052828104E082894DF6FF731A408281D2
:1008D000704702460020B1F5007F00D100BF1388A9
:1008E0000B400BB1012000E000207047F0B503463B
:1008F000002400260025002040F66A17B94200D1E6
:1009000000BF1846C1F3421401F01F06012707FA81
:1009100006F5012C01D10C3004E0022C01D110307D
:1009200000E014301AB107682F43076002E007683F
:10093000AF430760F0BD00002DE9FF4705460E46B6
:100940000024A14600BFA046B08900B100BF2C8A98
:1009500024F44054F08804432C82AC8941F20C60AA
:100960008443B08831890843718908430443AC81CA
:10097000AC8A24F44074B0890443AC826846FFF723
:10098000D5FD2048854202D01F48854202D1DDF8BE
:100990000C9001E0DDF80890A88900F4004040B117
:1009A00009EBC90000EB091031684900B0FBF1F711
:1009B00007E009EBC90000EB091031688900B0FBC2
:1009C000F1F76420B7FBF0F004012009642101FB7A
:1009D0001078A88900F4004040B1322000EBC80034
:1009E000B0FBF1F000F00700044308E0322000EB18
:1009F00008106421B0FBF1F000F00F0004432C81DB
:100A0000BDE8FF87001001400014014001468888BE
:100A1000C0F308007047C1F308028280704700BF2E
:100A2000FEE700000FB4054B10B503A9044A029875
:100A300000F018F810BC5DF814FB0000B90B0008BA
:100A4000A400002002E008C8121F08C1002AFAD141
:100A500070477047002001E001C1121F002AFBD13E
:100A6000704700002DE9FF4F89B09B4604460025E2
:100A700006E025280BD05A460B999047641C6D1C44
:100A800020780028F5D10DB02846BDE8F08F00276A
:100A9000B8460122474900E0074314F8013F203BD4
:100AA00002FA03F00842F7D120782E2819D114F861
:100AB000010F47F004072A280ED06FF02F0220788C
:100AC000A0F1300109290CD808EB880102EB4101A3
:100AD00000EB0108641CF2E70A98641C50F8048BD0
:100AE0000A9020780028CED0642808D0692806D043
:100AF00075281ED05A460B9990476D1C58E00A99EC
:100B00004FF00A0901C90A91002802DA40422D215A
:100B100002E0390504D52B218DF82010012103E0D6
:100B2000F90704D02021F7E78A4608AE0DE000213E
:100B3000FAE70A994FF00A0901C90A91F7E749460D
:100B4000FFF7C2FB303106F8011D0028F7D1ADEBED
:100B5000060000F12009780701D44FF00108C845CC
:100B600002DDA8EB090000E000208046002706E037
:100B700008A85A46C05D0B9990476D1C7F1C5745CD
:100B8000F6DB04E030205A460B9990476D1CB8F113
:100B90000001A8F10108F5DC05E016F8010B5A4642
:100BA0000B9990476D1CB9F10001A9F10109F4DC22
:100BB000641C65E7092801000A46044900BF0B8848
:100BC00003F08003002BFAD08880704700100140AA
:100BD0001CB500F09BFC00220821052001F068F9FB
:100BE000184908600846006820B300200221164B0F
:100BF0004FF47A72CDE9001014A1164801F0CAFB37
:100C000000200221104B08334FF47A72CDE9001016
:100C100011A1134801F0BEFB0020012103464FF44F
:100C20007A72CDE900100FA1104801F0B3FB00F07B
:100C3000EFFF04E00EA0FFF7F5FE01201CBD002031
:100C4000FCE7000000000020C42900085461736B19
:100C500031000000191A00085461736B3200000063
:100C60006D1A00085461736B33000000C11A00084C
:100C70005175657565206372656174696F6E206674
:100C800061696C65640D0A002DE9F04105460E4668
:100C90002648076826480068001D00F087FD50B907
:100CA0002348006890F82C100120884021490968E9
:100CB000814320480160681CD8B9D6B11E494868F4
:100CC0001B49096888601A4982680968CA6018491E
:100CD0000968091D8268516015490968091D81600C
:100CE000154A134909684A6111460968491C11608F
:100CF0001AE07C190E4800684460BC4207D20C48D8
:100D00000168091D0D48006800F074FD0CE00848FA
:100D10000168091D0A48006800F06CFD0948006878
:100D2000844201D207480460BDE8F0813C00002005
:100D30002800002040000020000200203000002099
:100D40002C0000205800002010B5044600F06CFD77
:100D500031480068401C304908603048006840B99C
:100D60002E4804600846006801280DD100F0F2F911
:100D70000AE02B48006838B928480068C06AE16A70
:100D8000884201D82548046026480068401C25494F
:100D9000086008460068206494F82C100120884000
:100DA00021490968084320490860E16A01EB810193
:100DB0001E4A02EB81014868A0608268E260211D42
:100DC000826851608160E16A01EB8101174A02EBA0
:100DD00081026261E16A01EB8101144A52F821103B
:100DE000491CE26A02EB8202104B43F8221000F029
:100DF00045FD0B48006868B108480068C06AE16AB0
:100E0000884207D24FF0805009490860BFF34F8FE6
:100E1000BFF36F8F10BD00003800002028000020B5
:100E2000440000205400002040000020E800002082
:100E300004ED00E010B500F0F7FC10480068D0B9F0
:100E40000F4800F0C7FC0F4800F0C4FC0C480E49E6
:100E500008600C480D49086000220C210A2001F0AE
:100E600027F8064908600846006820B108A1034831
:100E7000006800F07BFD00F001FD10BD7000002057
:100E80001402002028020020680000206C000020CE
:100E9000546D72510000000010B516E000F0C4FC63
:100EA0000C48C068C468201D00F080FC0A48006837
:100EB000401E0949086009480068401E074908604B
:100EC00000F0DCFC204600F05FF8044800680028D1
:100ED000E4D110BDEC0100203800002034000020D7
:100EE00070B504460D46206C70B1216CE068014479
:100EF000E160D4E90210884201D32168E16028460C
:100F0000226CE168FFF7BCF970BD2DE9F0410446A1
:100F10000F4615464FF00008A66B206C48B92068B4
:100F200000282CD1A06801F05DFB80460020A06065
:100F300025E07DB93946226C6068FFF7A1F9216C84
:100F4000606808446060D4E90101884217D32068D2
:100F5000606014E03946226CE068FFF791F9216C7B
:100F6000E068411AE1602168E068884203D2216CA0
:100F7000A068411AE160022D01D106B1761E701CF5
:100F8000A0634046BDE8F08110B50446206B00F038
:100F900093FC204600F090FC10BD00000146084A7A
:100FA000126812680AB9012200E000220A600A6889
:100FB00022B9034A1268D268106800E00020704726
:100FC0006800002030B54FF49633154800F0070450
:100FD0002CB1C01D20F00700114C041B1B1B024646
:100FE000104C226000240F4D6C60D018083820F09F
:100FF00007000D4C206000240B4D2D686C600A4DDD
:101000002D682C601146441A4C60074C24680C6013
:10101000064D4C682C60064D4C682C6030BD0000BD
:101020003C02002088000020900000209800002052
:101030009400002000BFFFF72FFF0648006801283A
:10104000F9D94FF0805004490860BFF34F8FBFF3C8
:101050006F8FF0E7E800002004ED00E02DE9F0419B
:1010600006460D4617469846069C0DB9246000E0DA
:101070002760E66325640121204600F04DFF84F8D7
:101080004C80BDE8F0812DE9F05F82460F46904626
:101090009B460A9E0C9C4FEA8801A522206BFFF715
:1010A00001F9A8F10100216B01EB800929F0070982
:1010B00009F0070008B9012000E0002050B900BF86
:1010C000502080F31188BFF34F8FBFF36F8F00BFA5
:1010D00000BFFEE77FB1002507E0795D04F1340031
:1010E0004155785D00B902E06D1C0A2DF5D300BFB3
:1010F00000213D2001550A2E01D2012000E00020F0
:1011000050B900BF502080F31188BFF34F8FBFF359
:101110006F8F00BF00BFFEE70A2E00D30926E662EC
:10112000A664201D00F063FB04F1180000F05FFBD3
:101130002461C6F10A00A06164625A4651464846DD
:1011400000F01EFB20600B9808B10B980460BDE80E
:10115000F09F000010B5002407E004EB84010F4A63
:1011600002EB810000F036FB641C0A2CF5D30C481E
:1011700000F030FB0B4800F02DFB0B4800F02AFB81
:101180000A4800F027FB0A4800F024FB04480949FC
:10119000086004480849086010BD0000E80000200D
:1011A000B0010020C4010020D8010020EC01002083
:1011B000000200202C0000203000002010B5014665
:1011C000164800E0006803688B42FBD30246436880
:1011D00013448B4204D143684C6823444360014666
:1011E0000A464B6813440468A34211D10C4C0368AF
:1011F0002468A34208D04B680468646823444B60A9
:1012000003681B680B6005E0054B1B680B6001E081
:1012100003680B60884200D0016010BD8800002088
:10122000900000202DE9F04104460D4616461F4669
:101230004FF0000865602461B5420CD8F01BA1692D
:10124000884202D34FF0010811E0211D09480068CF
:1012500000F0D0FA0BE0BE4204D2BD4202D34FF000
:10126000010804E0211D0448006800F0C3FA40466C
:10127000BDE8F0816C0000206800002070B50546D4
:1012800000F0D2FAA86B08B9012400E0002400F0B5
:10129000F5FA204670BD70B5054600F0C5FAA86B9A
:1012A000E96B884201D1012400E0002400F0E6FA55
:1012B000204670BD70B505460E460E480068C068F1
:1012C000C468201D00F072FA94F8280000F00400B1
:1012D00028B132462946204600F0D6F805E094F8B9
:1012E000280000F0FE0084F828002046216A884784
:1012F00070BD0000680000207FB57FE001980028E5
:101300007CDB039C606908B9012000E0002010B973
:10131000201D00F04BFA684600F0E2F805460198FF
:101320000A2869D2DFE800F06805072E365806085B
:101330002F3700BF00BF00BF94F8280040F0010025
:1013400084F828000298A269811803462A4620469C
:10135000FFF768FFA8B194F8280000F0040038B146
:101360000298A26981182A46204600F08DF805E00F
:1013700094F8280000F0FE0084F828002046216A36
:1013800088473AE000BF94F8280000F0FE0084F897
:10139000280032E000BF94F8280040F0010084F8F3
:1013A00028000298A061A06908B1012000E0002097
:1013B00050B900BF502080F31188BFF34F8FBFF3A7
:1013C0006F8F00BF00BFFEE7A06941192B462A4678
:1013D0002046FFF727FF10E094F8280000F00200F5
:1013E00018B9204600F068FA05E094F8280000F0EB
:1013F000FE0084F8280000E000BF00BF002201A921
:101400000348006800F0CAFE00287FF477AF7FBD74
:1014100070000020F8B505460C4600F047FC684611
:1014200000F05EF80646009820BB44B9B54206D8E5
:1014300001F0E0F931462846FFF73CFF1CE03CB1E3
:101440000E480068006808B9012000E0002004464A
:10145000A91B22460A48006800F0B8FA01F0CAF950
:1014600050B94FF0805007490860BFF34F8FBFF36A
:101470006F8F01E001F0BEF9F8BD00006C000020A4
:101480007000002004ED00E070B504460D461646DD
:1014900004E0A06905442046216A8847A0694119F3
:1014A0002B4632462046FFF7BDFE0028F1D170BD25
:1014B00009480068006808B9012000E0002020B158
:1014C0004FF0FF300549086005E003480068C06838
:1014D00000680249086070472C0000205800002076
:1014E00070B5044600F09AFF05460748006885423B
:1014F00004D200F021F80120206001E000202060EB
:1015000001480560284670BD7800002010B54FF4F2
:10151000E130FFF77FF80548FEF777FF0448FEF754
:1015200074FF0448FEF771FF10BD0000D4290008C5
:10153000E0290008EC29000870B508E00D480068B3
:10154000C06804684FF0FF312046FFF7B3FE09483A
:101550000068006808B9012000E000200028EDD0F4
:1015600004480568044800680249086002480560AC
:1015700070BD0000680000206C0000200E4800686C
:10158000401C08B9012000E0002050B900BF5020E5
:1015900080F31188BFF34F8FBFF36F8F00BF00BF81
:1015A000FEE700BF502080F31188BFF34F8FBFF3D9
:1015B0006F8F00BF00BFFEE77C00002008B500BFB2
:1015C0006846FFF7EBFC044620460099FFF722FF30
:1015D000FFF792FEF4E770B5044600F025F994F9A0
:1015E000455010E0606A08B9012000E0002038B9D9
:1015F00004F1240001F06EF818B100F0B5FA00E033
:1016000003E0681E45B2002DECDC00BFFF2084F82B
:10161000450000F033F900F007F994F9445010E068
:10162000206908B9012000E0002048B904F1100049
:1016300001F050F808B100F097FA681E45B200E0DA
:1016400001E0002DECDC00BFFF2084F8440000F036
:1016500015F970BD2DE9F04705464FF0000900F07F
:1016600025FB4248006808B9FFF7ACFC75B105F0EE
:101670000700C0F11008C8F1FF30A84201D20120D4
:1016800000E0002008B9454400E00025012000EBFF
:10169000E570002853D0002D51D0354800688542B0
:1016A0004DD8344E3046046801E026462468606810
:1016B000A84202D220680028F7D12C480068844252
:1016C0003DD0306800F10809206830606068401B38
:1016D000102819D9671907F0070008B9012000E0A0
:1016E000002050B900BF502080F31188BFF34F8F06
:1016F000BFF36F8F00BF00BFFEE76068401B7860DC
:1017000065603846FFF75AFD194960680968081A8C
:10171000174908600846006817490968884203D2DB
:101720001348006814490860606840F00040606039
:101730000020206011480068401C1049086001F03A
:1017400059F809F0070008B9012000E0002050B95D
:1017500000BF502080F31188BFF34F8FBFF36F8F0E
:1017600000BF00BFFEE74846BDE8F08790000020BC
:101770009400002088000020980000209C00002099
:10178000001F4FF080730360001F21F0010303600E
:10179000001F054B036014380260001F6FF0020346
:1017A00003602038704700007D15000801460A6973
:1017B000D1E901309860D1E901035860506888424E
:1017C00001D188685060002008611068401E1060D8
:1017D0001068704700F1080141604FF0FF318160EF
:1017E00000F10801C1600161002101607047002122
:1017F0000161704710B502460B685C1C0CB910699A
:1018000007E002F1080000E04068446824689C4258
:10181000FAD944684C604C68A160886041600A61F4
:101820001468641C146010BD00BF502080F3118840
:10183000BFF34F8FBFF36F8F00BF0E480068401C8F
:101840000C49086008460068012812D10A4800685F
:10185000C0B208B9012000E0002050B900BF5020FC
:1018600080F31188BFF34F8FBFF36F8F00BF00BFAE
:10187000FEE770477C00002004ED00E00D480068A2
:1018800050B900BF502080F31188BFF34F8FBFF3D2
:101890006F8F00BF00BFFEE706480068401E054985
:1018A00008600846006820B9002080F3118800BF56
:1018B00000BF70477C00002070B506463546002EFC
:1018C0003BD0083D2C466068C00F50B900BF502087
:1018D00080F31188BFF34F8FBFF36F8F00BF00BF3E
:1018E000FEE7206808B9012000E0002050B900BFE1
:1018F000502080F31188BFF34F8FBFF36F8F00BF6D
:1019000000BFFEE76068C00FB8B12068A8B9606882
:1019100020F00040606000F0C9F90849606809687B
:101920000844064908602046FFF748FC0448006860
:10193000401C0349086000F05DFF70BD940000206A
:10194000A000002000204FF0E021086188610648D7
:1019500000684FF47A71B0FBF1F0401E4FF0E021C7
:1019600048610720086170470400002030B5024636
:101970000B46002152B900BF502484F31188BFF3F5
:101980004F8FBFF36F8F00BF00BFFEE7BBB10020DA
:1019900012E00D4C04EBC0046468944203D10A4C7D
:1019A00004EBC0010AE031B9074C54F8304014B9D7
:1019B000054C04EBC001401C0828EAD300BF09B164
:1019C0000B604A6030BD0000A80000202DE9F04106
:1019D00005460E4617462C46FFF726FF94F94400AD
:1019E000401C10B9002084F8440094F94500401CC4
:1019F00010B9002084F84500FFF740FFA06B28B91C
:101A00003A46314604F1240000F0D0F82046FFF7B2
:101A1000E2FDBDE8F0810000054600BF10E00023B4
:101A2000642229460748006800F0E4FA0446012CC5
:101A300003D10548FEF70AFD02E004A0FEF7F2FF1D
:101A4000EDE7000000000020D42900085461736B0A
:101A500031206661696C656420746F2073656E6403
:101A600020746F2071756575650D0A00054600BF0D
:101A700010E00023642229460748006800F0BAFA03
:101A80000446012C03D10548FEF7E0FC02E004A067
:101A9000FEF7C8FFEDE7000000000020E029000885
:101AA0005461736B32206661696C656420746F20C9
:101AB00073656E6420746F2071756575650D0A001D
:101AC0001CB51FE0002269460F48006800F066FB65
:101AD0000446012C13D10D48FEF7B8FC9DF8000018
:101AE00020B90BA00199FEF79DFF0BE09DF80000C7
:101AF000012807D10AA00199FEF794FF02E00CA08B
:101B0000FEF790FFDEE7000000000020EC2900084F
:101B10005370656564203D2025640D0A00000000B7
:101B200044697374656E6365203D2025640D0A0069
:101B30004661696C656420746F20726563656976BF
:101B4000652066726F6D2071756575650D0A000000
:101B50000349096801600349096841607047000052
:101B6000500000203C00002001200149086070471F
:101B70004C00002070B504460D4654B900BF5020FB
:101B800080F31188BFF34F8FBFF36F8F00BF00BF8B
:101B9000FEE70548016818312046FFF72BFE0121BA
:101BA0002846FFF771F870BD2800002070B5044684
:101BB0000E46154654B900BF502080F31188BFF37C
:101BC0004F8FBFF36F8F00BF00BFFEE760680F4904
:101BD0000968C8610D49826809680A620B49096889
:101BE00018318268516009490968183181600749D4
:101BF00009688C622168491C21600DB14FF0FF36E5
:101C000029463046FFF740F870BD0000280000204C
:101C10001CB51E4800210B468222CDE900101CA1F4
:101C20001D4800F0B7FB0446012C02D100F09EFED7
:101C30000446012C15D100BF502080F31188BFF35A
:101C40004F8FBFF36F8F00BF4FF0FF301349086015
:101C500001201349086000201249086000F074F860
:101C600010E0601C08B1012000E0002050B900BF66
:101C7000502080F31188BFF34F8FBFF36F8F00BFE9
:101C800000BFFEE7084800681CBD00005C000020A3
:101C900049444C4500000000351000085800002061
:101CA000440000203C000020600000200248006842
:101CB000401C014908607047640000201D4800680E
:101CC00018B101201C49086032E000201A49086060
:101CD0001A480068B0FA80F0C0F11F0101EB8100E2
:101CE000174A52F8200008B1012000E0002050B946
:101CF00000BF502080F31188BFF34F8FBFF36F8F69
:101D000000BF00BFFEE701EB81020D4B03EB820039
:101D100042685268426000F108024368934202D16F
:101D20004268526842604268D268064B1A6000BF3F
:101D300070470000640000204C000020400000209C
:101D4000E8000020280000201CB5524800685249D5
:101D5000884201D0012000E0002050B900BF50208F
:101D600080F31188BFF34F8FBFF36F8F00BF00BFA9
:101D7000FEE7484800684849491E884201D00120D2
:101D800000E0002050B900BF502080F31188BFF35D
:101D90004F8FBFF36F8F00BF00BFFEE73F4908467C
:101DA00000780190FF200A461070084600780090E5
:101DB0009DF8000000F0F0009DF80020904201D155
:101DC000012000E0002050B900BF502080F31188AE
:101DD000BFF34F8FBFF36F8F00BF00BFFEE79DF8CB
:101DE000000000F050002E4A107007202D4A1060AD
:101DF00009E02C480068401E2A4A10609DF8000047
:101E00004006000E00909DF8000000F08000802841
:101E1000EFD024480068C0F10700042801D1012058
:101E200000E0002050B900BF502080F31188BFF3BC
:101E30004F8FBFF36F8F00BF00BFFEE719480068E8
:101E40000002184A10601046008800F4E06010603C
:101E5000124A019810700F482030006840F470005A
:101E60000C49203108600846006840F07040086066
:101E7000FFF768FD00200C490860FEF7B3F90B4836
:101E8000006840F0404009490860FEF797F90020DB
:101E90001CBD000000ED00E071C20F4100E400E055
:101EA00080000020840000207C00002034EF00E04F
:101EB0002DE9F84305460E4617460024E5B1601E9D
:101EC000B0FBF5F0B04217D305FB06F010F1510F4F
:101ED00012D805FB06F808F15000FFF7BBFB0446DB
:101EE000B4B1A14609F150093B464A46314628465D
:101EF0000094FFF7B3F80BE054B900BF502080F313
:101F00001188BFF34F8FBFF36F8F00BF00BFFEE795
:101F10002046BDE8F88300002DE9F04105460E4655
:101F200001272C4654B900BF502080F31188BFF31D
:101F30004F8FBFF36F8F00BF00BFFEE7002C42D072
:101F4000E06B00283FD04FF0FF31E06BB1FBF0F0C9
:101F5000216C884237D3FFF767FCD4E90F12206861
:101F600001FB0200A0600020A06320686060E06BBD
:101F7000401E226C216800FB0211E160FF2084F802
:101F8000440084F845009EB9206908B9012000E0AA
:101F90000020A8B904F1100000F09CFB80B14FF0C4
:101FA000805013490860BFF34F8FBFF36F8F07E076
:101FB00004F11000FFF70EFC04F12400FFF70AFC07
:101FC000FFF75CFC00E000270FB1012000E00020DB
:101FD00050B900BF502080F31188BFF34F8FBFF37B
:101FE0006F8F00BF00BFFEE73846BDE8F0810000FC
:101FF00004ED00E02DE9FF4383B0064688461D4608
:102000004FF00009344654B900BF502080F31188C6
:10201000BFF34F8FBFF36F8F00BF00BFFEE7B8F174
:10202000000F01D1206C08B9012000E0002050B958
:1020300000BF502080F31188BFF34F8FBFF36F8F25
:1020400000BF00BFFEE7022D02D1E06B012801D1E5
:10205000012000E0002050B900BF502080F311881B
:10206000BFF34F8FBFF36F8F00BF00BFFEE700F0DD
:10207000C5F908B9059808B9012000E0002050B959
:1020800000BF502080F31188BFF34F8FBFF36F8FD5
:1020900000BF00BFFEE700BFFFF7C6FBA06BE16B10
:1020A000884201D3022D28D12A4641462046FEF718
:1020B0002CFF0746606A08B9012000E0002068B9DB
:1020C00004F1240000F006FB88B14FF08050324943
:1020D0000860BFF34F8FBFF36F8F08E03FB14FF041
:1020E00080502D490860BFF34F8FBFF36F8FFFF70C
:1020F000C5FB012007B0BDE8F083059818B9FFF7CC
:10210000BDFB0020F6E7B9F1000F04D101A8FFF7ED
:102110001FFD4FF00109FFF7B1FBFFF7C7FDFFF708
:1021200083FB94F94400401C10B9002084F844005B
:1021300094F94500401C10B9002084F84500FFF7D1
:102140009DFB05A901A800F0DDF8F0B92046FFF7D6
:10215000A2F8A0B104F110000599FFF70BFD20468D
:10216000FFF739FA00F046FB002895D14FF0805078
:1021700009490860BFF34F8FBFF36F8F8CE720468C
:10218000FFF729FA00F036FB86E72046FFF723FA2F
:1021900000F030FB0020ADE704ED00E02DE9F74151
:1021A00083B005460E464FF000082C4654B900BFD8
:1021B000502080F31188BFF34F8FBFF36F8F00BFA4
:1021C00000BFFEE70EB9206C08B9012000E0002036
:1021D00050B900BF502080F31188BFF34F8FBFF379
:1021E0006F8F00BF00BFFEE700F008F908B905983F
:1021F00008B9012000E0002050B900BF502080F352
:102200001188BFF34F8FBFF36F8F00BF00BFFEE792
:1022100000BFFFF709FBA76BF7B131462046FEF779
:102220005FFE781EA063206908B9012000E000204D
:1022300060B904F1100000F04DFA38B14FF0805051
:102240002F490860BFF34F8FBFF36F8FFFF716FB67
:10225000012006B0BDE8F081059818B9FFF70EFB24
:102260000020F6E7B8F1000F04D101A8FFF770FCD9
:102270004FF00108FFF702FBFFF718FDFFF7D4FA54
:1022800094F94400401C10B9002084F8440094F9EB
:102290004500401C10B9002084F84500FFF7EEFA15
:1022A00005A901A800F02EF8F0B92046FEF7E6FFD8
:1022B000A0B104F124000599FFF75CFC2046FFF76C
:1022C0008AF900F097FA0028A3D14FF080500C490A
:1022D0000860BFF34F8FBFF36F8F9AE72046FFF779
:1022E0007AF900F087FA94E72046FFF774F900F0D6
:1022F00081FA2046FEF7C2FF00288AD00020A8E716
:1023000004ED00E070B505460C4655B900BF5020FD
:1023100080F31188BFF34F8FBFF36F8F00BF00BFF3
:10232000FEE754B900BF502080F31188BFF34F8FF0
:10233000BFF36F8F00BF00BFFEE7FFF775FA1348CA
:1023400002686868131A2068401C08B9002619E062
:102350000F4928680968884206D06868904203D807
:102360000126002020600DE02068984207D92068EF
:10237000C01A20602846FFF7EBFB002602E0002091
:1023800020600126FFF77AFA304670BD3C0000203D
:10239000500000202DE9FF4F85B080468946174642
:1023A000DDE912ABB800FFF755F9064676B15820C3
:1023B000FFF750F904462CB158212046FDF779FF6C
:1023C000266304E03046FFF777FA00E000247CB192
:1023D0000020CDE900ABCDE902403A4649464046EF
:1023E000089BFEF750FE2046FEF7AEFC012501E0FB
:1023F0004FF0FF35284609B0BDE8F08F0549096860
:1024000009B9012005E00449096809B9022000E082
:102410000020704744000020640000200149086843
:10242000704700003C0000202DE9F0414FF000080B
:102430006148006800287DD160480068451C5F48FD
:10244000056015BB5E480068006808B9012000E01F
:10245000002050B900BF502080F31188BFF34F8F88
:10246000BFF36F8F00BF00BFFEE7554807685548B0
:102470000068534908605348076053480068401C8F
:1024800051490860FFF714F800BF504800688542C2
:1024900077D300BF4A480068006808B9012000E00F
:1024A000002020B14FF0FF304849086068E0444800
:1024B0000068C068C4686668B54202D243480660D6
:1024C0005EE06069D4E902128A60D4E902214A60C0
:1024D000211D42688A4201D1E168416000226261A7
:1024E0000168491E0160A06A98B1A06AD4E9071288
:1024F0008A60D4E907214A6004F1180142688A42DF
:1025000001D1216A41600022A2620168491E016076
:1025100000BF94F82C10012088402D490968084319
:102520002B490860E16A01EB81012A4A02EB810133
:10253000486800E037E0A0608268E260211D8268A0
:1025400051608160E16A01EB8101224A02EB810264
:102550006261E16A01EB81011E4A52F82110491CB7
:10256000E26A02EB82021B4B43F822101A49E06A2E
:102570000968C96A88428DD94FF001088AE700E0EE
:1025800000BF15480068C06A00EB8000114951F88F
:102590002000012801D94FF001081048006808B157
:1025A0004FF0010804E00E480068401C0C49086028
:1025B0004046BDE8F0810000640000203C0000209F
:1025C0002C00002030000020500000205800002087
:1025D00040000020E8000020280000204C000020DF
:1025E0004800002070B505462C460026002D68D016
:1025F00035480068844201D1012000E0002050B934
:1026000000BF502080F31188BFF34F8FBFF36F8F4F
:1026100000BF00BFFEE7E06C50B900BF502080F360
:102620001188BFF34F8FBFF36F8F00BF00BFFEE76E
:10263000E06C401EE064A16CE06A884241D0E06C2E
:1026400000283ED1201DFFF7B1F840B994F82C10B6
:10265000012088401D49096881431C480160A06C25
:10266000E062E06AC0F10A00A06194F82C10012039
:10267000884016490968084314490860E16A01EB7B
:102680008101134A02EB81014868A0608268E26020
:10269000211D826851608160E16A01EB81010C4A71
:1026A00002EB81026261E16A01EB8101084A52F8A2
:1026B0002110491CE26A02EB8202054B43F822100A
:1026C0000126304670BD0000280000204000002098
:1026D000E800002070B50346D868C16851B900BF52
:1026E000502080F31188BFF34F8FBFF36F8F00BF6F
:1026F00000BFFEE7886AD1E90745A560D1E9075424
:10270000656001F118044568A54201D10C6A446076
:1027100000258D620468641E04603048006800284B
:102720003DD14869D1E90245A560D1E9025465600F
:102730000C1D4568A54201D1CC68446000254D615F
:102740000468641E046091F82C400120A040244CD1
:1027500024682043224C2060CC6A04EB8404214D81
:1027600005EB8404606888608568CD600C1D856811
:102770006C608460CC6A04EB84041A4D05EB84051C
:102780004D61CC6A04EB8404164D55F82440641C5A
:10279000CD6A05EB8505134E46F8254010E0124C36
:1027A0006068C86185680D6201F1180485686C6015
:1027B00084600D4D8D622C462468641C2C6000BF23
:1027C0000A4CC86A2468E46AA04204D901220120A4
:1027D000074C206000E00022104670BD640000201D
:1027E00040000020E8000020D80100202800002040
:1027F0004C00002070B5002400265348006850B9F2
:1028000000BF502080F31188BFF34F8FBFF36F8F4D
:1028100000BF00BFFEE7FFF707F84B480068401E07
:10282000494908600846006800287DD1474800688B
:10283000002879D05BE04648C068C468A06AD4E943
:1028400007128A60D4E907214A6004F1180142683E
:102850008A4201D1216A41600022A2620168491EB8
:1028600001606069D4E902128A60D4E902214A60F9
:10287000211D42688A4201D1E16841600022626103
:102880000168491E016094F82C10012088403149EC
:10289000096808432F490860E16A01EB81012E4A6B
:1028A00002EB81014868A0608268E260211D8268B5
:1028B00051608160E16A01EB8101274A02EB8102EC
:1028C0006261E16A01EB8101234A52F82110491C3F
:1028D000E26A02EB8202204B43F822101F49E06AB1
:1028E0000968C96A884202D301201D490860184856
:1028F000006808B9012000E0002000289BD00CB13E
:10290000FEF7D6FD1748056865B100BFFFF78CFDDF
:1029100010B10120124908606D1E002DF6D1002073
:10292000104908600E4800E009E0006838B101264F
:1029300030070D490860BFF34F8FBFF36F8FFEF76D
:102940009DFF304670BD000064000020380000206C
:10295000D801002040000020E800002028000020CE
:102960004C0000204800002004ED00E01CB50024CD
:10297000FEF760FA0E48006858B10E4802210023A5
:102980004FF48272CDE900100BA10D48FFF702FD54
:10299000044654B900BF502080F31188BFF34F8F15
:1029A000BFF36F8F00BF00BFFEE720461CBD0000D5
:1029B0007000002074000020546D72205376630074
:1029C000BD150008000000007800000001000000B4
:1029D000E803000010000000001002402000000189
:1029E0001000000000100240400000010400000040
:1029F0000008024000200001182A00080000002002
:102A0000A8000000440A0008C02A0008A80000200E
:102A100098310100540A000800000000007A030AFF
:102A2000000000000000000001020304060708097E
:102A30000000000001020304010203040607080964
:102A40000000000000000000000000000000000086
:102A50000000000000000000000000000000000076
:102A60000000000000000000000000000000000066
:102A7000000000000000000009000000000000004D
:102A80000000000000000000000000000000000046
:102A900000000000AAAAAAAA00000000000000008E
:102AA0000000000000000000000000000000000026
:102AB0000000000000000000000000000000000016
:040000050800018965
:00000001FF
