:020000040800F2
:10000000080400209D0100083D030008D7020008F5
:1000100039030008E5010008D904000800000000C9
:100020000000000000000000000000006103000864
:10003000E9010008000000003F0300085104000827
:10004000B7010008B7010008B7010008B7010008B0
:10005000B7010008B7010008B7010008B7010008A0
:10006000B7010008B7010008B7010008B701000890
:10007000B7010008B7010008B7010008B701000880
:10008000B7010008B7010008B7010008B701000870
:10009000B7010008B7010008B7010008B701000860
:1000A000B7010008B7010008B7010008B701000850
:1000B000B7010008B7010008B7010008B701000840
:1000C000B7010008B7010008B7010008B701000830
:1000D000B7010008B7010008B7010008B701000820
:1000E000B7010008B7010008B7010008B701000810
:1000F000B7010008B7010008B7010008B701000800
:10010000B7010008B7010008B7010008B7010008EF
:10011000B7010008B7010008B7010008B7010008DF
:10012000B7010008B7010008B7010008B7010008CF
:10013000B7010008B7010008B7010008B7010008BF
:10014000B7010008B7010008B7010008B7010008AF
:10015000B7010008B7010008B7010008B70100089F
:10016000B7010008B7010008B7010008B70100088F
:10017000B7010008B7010008B7010008B70100087F
:10018000B7010008B7010008DFF80CD000F018F83C
:1001900000480047FD040008080400200648804786
:1001A00006480047FEE7FEE7FEE7FEE7FEE7FEE75C
:1001B000FEE7FEE7FEE7FEE75904000889010008B4
:1001C000064C074D06E0E06840F0010394E80700A4
:1001D00098471034AC42F6D3FFF7DAFF88050008E1
:1001E000A805000800BFFEE7704700B5034603E01E
:1001F0004FF47A7000F005F8181EA3F10103F7D14F
:1002000000BD00EBC001C9004FF0E02251610021A8
:1002100091610521116100BF4FF0E021096901F4EE
:1002200080310029F8D004214FF0E022116170479D
:10023000F0B50A4600210023002400BF3DE001255F
:1002400005FA01F3156805EA03049C4234D10568F8
:100250004F000326BE40B543056015794E00B540FA
:100260000668354305601579012D02D01579022DF8
:1002700016D185684F000326BE40B5438560557989
:100280004E00B540866835438560456801268E403E
:10029000B5434560456896798E40B6B235434560B2
:1002A000C5684F000326BE40B543C560D5794E00F2
:1002B000B540C6683543C560491C1029BFD3F0BDA1
:1002C0000A0482617047816170470AB1816101E06F
:1002D0000B048361704700BFFEE71CB50446012193
:1002E000206800F02DF800200090019020890090F7
:1002F00001208DF8040000208DF8060003208DF801
:10030000050000208DF8070069466068FFF790FF40
:10031000E27A21896068FFF7D8FF1CBD10B504465A
:1003200021896068FFF7CFFF10BD10B50446218911
:100330006068FFF7C5FF10BD00BFFEE7704770475C
:1003400029B1064A12680243044B1A6004E0034ACA
:1003500012688243014B1A60704700003038024037
:10036000704700000CB500200190009034480068F0
:1003700040F480303249086000BF3148006800F422
:10038000003000900198401C0190009818B9019825
:10039000B0F5A04FF1D12A48006800F4003010B148
:1003A0000120009001E0002000900098012846D133
:1003B00023484030006840F08050214940310860B7
:1003C0002048006840F440401E4908601C4808303E
:1003D00000681B49083108600846006840F4004086
:1003E00008600846006840F4A05008601648091FDD
:1003F0000860081F006840F08070091F086000BF97
:100400000F48006800F000700028F9D040F2057035
:100410000E4908600A480830006820F003000849C7
:10042000083108600846006840F00200086000BF1C
:1004300003480830006800F00C000828F8D10CBD13
:10044000003802400070004019544007003C024050
:1004500000B500F035F800BD10B51548006840F44F
:100460007000134908601348006840F0010011490A
:10047000086000200F49083108600E4800680E49E6
:1004800008400C4908600D48091D0860081F0068F5
:1004900020F48020091F0860002006490C31086004
:1004A000FFF760FF4FF0006001498039086010BD20
:1004B00088ED00E000380240FFFFF6FE1030002417
:1004C0000448006820B103480068401E01490860E4
:1004D000704700000000002000BFFEE702E008C8EF
:1004E000121F08C1002AFAD170477047002001E0AE
:1004F00001C1121F002AFBD1704700001648FFF708
:10050000ECFE1648FFF7E9FE1548FFF7E6FE21E08E
:100510001148FFF70AFF4FF4FA70FFF766FE0E4826
:10052000FFF7FCFE0D48FFF700FF4FF4FA70FFF7EE
:100530005CFE0A48FFF7F2FE0948FFF7F6FE4FF4AB
:10054000FA70FFF752FE0648FFF7E8FE4FF4FA7024
:10055000FFF74BFEDCE700006405000870050008AB
:100560007C0500081000000000100240200000017F
:1005700010000000001002404000000104000000D4
:100580000008024000200001A8050008000000202B
:1005900004000000DC040008AC0500080400002092
:0C05A00004040000EC040008000000004F
:040000050800018965
:00000001FF
